:020000040800F2
:1000000000000520A95C0008D9570008DB5700084C
:10001000DD570008DF570008E15700080000000026
:10002000000000000000000000000000C14B0008BC
:10003000E357000800000000F14B0008554C000891
:10004000F95C0008F95C0008F95C0008F95C00083C
:10005000F95C0008F95C0008F95C0008F95C00082C
:10006000F95C0008F95C0008F95C0008F95C00081C
:10007000F95C0008F95C0008F95C0008F95C00080C
:10008000F95C0008F95C0008F95C0008F95C0008FC
:10009000F95C0008F95C0008F95C0008F95C0008EC
:1000A000F95C0008E5570008F95C0008F95C0008F5
:1000B000F95C0008F95C0008F95C0008F95C0008CC
:1000C000F95C0008F95C0008F95C00082558000894
:1000D00035580008F95C0008F55700080558000875
:1000E00055580008F95C0008F95C0008F95C000844
:1000F000F95C0008F95C0008F95C0008F95C00088C
:10010000F95C0008F95C0008F95C00084558000833
:10011000F95C000815580008F95C0008F95C000853
:10012000F95C0008F95C0008F95C0008F95C00085B
:10013000F95C0008F95C0008F95C0008F95C00084B
:10014000F95C0008F95C0008F95C0008F95C00083B
:10015000F95C0008F95C0008F95C0008F95C00082B
:10016000F95C0008F95C0008F95C0008F95C00081B
:10017000F95C0008F95C0008F95C00080000000068
:10018000F95C0008F95C0008F95C0008F95C0008FB
:10019000F95C0008F95C0008F95C0008F95C0008EB
:1001A000F95C0008F95C0008000000000000000095
:1001B00010B5054C237833B9044B13B10448AFF3A1
:1001C00000800123237010BD1802002000000000F1
:1001D0008086000808B5034B1BB103490348AFF301
:1001E000008008BD000000001C020020808600087E
:1001F000034613F8012B002AFBD1181A0138704767
:1002000001F0FF01102A2BDB10F0070F08D010F8C7
:10021000013B013A8B422DD010F0070F42B3F6D1CB
:10022000F0B441EA012141EA014122F007047FF0E4
:1002300000070023F0E80256083C85EA010586EA3B
:10024000010685FA47F5A3FA87F586FA47F6A5FA77
:1002500087F68EB9EED1F0BC01F0FF0102F0070283
:1002600032B110F8013B013A83EA010313B1F8D12E
:100270000020704701387047002D06BF354603380F
:10028000073815F0010F07D1013015F4807F02BF48
:10029000013015F4C03F0130F0BC0138704700BF99
:1002A00081F0004102E000BF83F0004330B54FEA27
:1002B00041044FEA430594EA050F08BF90EA020F94
:1002C0001FBF54EA000C55EA020C7FEA645C7FEA27
:1002D000655C00F0E2804FEA5454D4EB5555B8BF4A
:1002E0006D420CDD2C4480EA020281EA030382EABB
:1002F000000083EA010180EA020281EA0303362D4D
:1003000088BF30BD11F0004F4FEA01314FF4801C1F
:100310004CEA113102D0404261EB410113F0004F31
:100320004FEA03334CEA133302D0524263EB4303E8
:1003300094EA050F00F0A780A4F10104D5F1200E86
:100340000DDB02FA0EFC22FA05F2801841F10001E1
:1003500003FA0EF2801843FA05F359410EE0A5F1B5
:1003600020050EF1200E012A03FA0EFC28BF4CF0E6
:10037000020C43FA05F3C01851EBE37101F000459C
:1003800007D54FF0000EDCF1000C7EEB00006EEBA9
:100390000101B1F5801F1BD3B1F5001F0CD3490833
:1003A0005FEA30004FEA3C0C04F101044FEA44528A
:1003B00012F5800F80F09A80BCF1004F08BF5FEA11
:1003C000500C50F1000041EB045141EA050130BDF1
:1003D0005FEA4C0C404141EB010111F4801FA4F194
:1003E0000104E9D191F0000F04BF01460020B1FAE9
:1003F00081F308BF2033A3F10B03B3F120020CDA21
:100400000C3208DD02F1140CC2F10C0201FA0CF0FE
:1004100021FA02F10CE002F11402D8BFC2F1200C63
:1004200001FA02F120FA0CFCDCBF41EA0C01904019
:10043000E41AA2BF01EB0451294330BD6FEA040462
:100440001F3C1CDA0C340EDC04F11404C4F120024D
:1004500020FA04F001FA02F340EA030021FA04F35F
:1004600045EA030130BDC4F10C04C4F1200220FAB6
:1004700002F001FA04F340EA0300294630BD21FAF4
:1004800004F0294630BD94F0000F83F4801306BFBA
:1004900081F480110134013D4EE77FEA645C18BFAE
:1004A0007FEA655C29D094EA050F08BF90EA020F45
:1004B00005D054EA000C04BF1946104630BD91EA3D
:1004C000030F1EBF0021002030BD5FEA545C05D140
:1004D0004000494128BF41F0004130BD14F580047F
:1004E0003CBF01F5801130BD01F0004545F0FE41F3
:1004F00041F470014FF0000030BD7FEA645C1ABF28
:10050000194610467FEA655C1CBF0B46024650EA5E
:10051000013406BF52EA033591EA030F41F400218A
:1005200030BD00BF90F0000F04BF0021704730B510
:100530004FF4806404F132044FF000054FF00001E5
:1005400050E700BF90F0000F04BF0021704730B5A6
:100550004FF4806404F1320410F0004548BF40427B
:100560004FF000013EE700BF42004FEAE2014FEAD0
:1005700031014FEA02701FBF12F07F4393F07F4FAB
:1005800081F06051704732F07F4208BF704793F0AE
:100590007F4F04BF41F40021704730B54FF46074C1
:1005A00001F0004521F000411CE700BF50EA0102C4
:1005B00008BF704730B54FF000050AE050EA01026D
:1005C00008BF704730B511F0004502D5404261EBDD
:1005D00041014FF4806404F132045FEA915C3FF41E
:1005E000D8AE4FF003025FEADC0C18BF03325FEABB
:1005F000DC0C18BF033202EBDC02C2F1200300FA6C
:1006000003FC20FA02F001FA03FE40EA0E0021FA90
:1006100002F11444BDE600BF70B54FF0FF0C4CF47E
:10062000E06C1CEA11541DBF1CEA135594EA0C0F30
:1006300095EA0C0F00F0DEF82C4481EA030621EA6B
:100640004C5123EA4C5350EA013518BF52EA0335A6
:1006500041F4801143F4801338D0A0FB02CE4FF058
:100660000005E1FB02E506F00042E0FB03E54FF088
:100670000006E1FB03569CF0000F18BF4EF0010E80
:10068000A4F1FF04B6F5007F64F5407404D25FEA7C
:100690004E0E6D4146EB060642EAC62141EA55512F
:1006A0004FEAC52040EA5E504FEACE2EB4F1FD0C71
:1006B00088BFBCF5E06F1ED8BEF1004F08BF5FEAEF
:1006C000500E50F1000041EB045170BD06F00046A1
:1006D00046EA010140EA020081EA0301B4EB5C044E
:1006E000C2BFD4EB0C0541EA045170BD41F4801146
:1006F0004FF0000E013C00F3AB8014F1360FDEBF6B
:10070000002001F0004170BDC4F10004203C35DA46
:100710000C341BDC04F11404C4F1200500FA05F3C9
:1007200020FA04F001FA05F240EA020001F000426A
:1007300021F0004110EBD37021FA04F642EB0601E0
:100740005EEA430E08BF20EAD37070BDC4F10C040A
:10075000C4F1200500FA04F320FA05F001FA04F2CE
:1007600040EA020001F0004110EBD37041F10001BA
:100770005EEA430E08BF20EAD37070BDC4F12005C5
:1007800000FA05F24EEA020E20FA04F301FA05F22D
:1007900043EA020321FA04F001F0004121FA04F2D5
:1007A00020EA020000EBD3705EEA430E08BF20EAA5
:1007B000D37070BD94F0000F0FD101F000464000DF
:1007C00041EB010111F4801F08BF013CF7D041EA61
:1007D000060195F0000F18BF704703F00046520065
:1007E00043EB030313F4801F08BF013DF7D043EA36
:1007F0000603704794EA0C0F0CEA135518BF95EAEC
:100800000C0F0CD050EA410618BF52EA4306D1D172
:1008100081EA030101F000414FF0000070BD50EA91
:10082000410606BF1046194652EA430619D094EA1B
:100830000C0F02D150EA013613D195EA0C0F05D105
:1008400052EA03361CBF104619460AD181EA030159
:1008500001F0004141F0FE4141F470014FF0000011
:1008600070BD41F0FE4141F4780170BD70B54FF0AC
:10087000FF0C4CF4E06C1CEA11541DBF1CEA13552C
:1008800094EA0C0F95EA0C0F00F0A7F8A4EB05040E
:1008900081EA030E52EA03354FEA013100F0888005
:1008A0004FEA03334FF0805545EA131343EA1263CE
:1008B0004FEA022245EA111545EA10654FEA002683
:1008C0000EF000419D4208BF964244F1FD0404F53C
:1008D000407402D25B084FEA3202B61A65EB030598
:1008E0005B084FEA32024FF480104FF4002CB6EB55
:1008F000020E75EB030E22BFB61A754640EA0C00D5
:100900005B084FEA3202B6EB020E75EB030E22BF14
:10091000B61A754640EA5C005B084FEA3202B6EB55
:10092000020E75EB030E22BFB61A754640EA9C0014
:100930005B084FEA3202B6EB020E75EB030E22BFE4
:10094000B61A754640EADC0055EA060E18D04FEAA2
:10095000051545EA16754FEA06164FEAC30343EA42
:1009600052734FEAC2025FEA1C1CC0D111F4801F0F
:100970000BD141EA00014FF000004FF0004CB6E708
:1009800011F4801F04BF01430020B4F1FD0C88BFA7
:10099000BCF5E06F3FF6AFAEB5EB030C04BFB6EBB2
:1009A000020C5FEA500C50F1000041EB045170BDA5
:1009B0000EF0004E4EEA113114EB5C04C2BFD4EBD2
:1009C0000C0541EA045170BD41F480114FF0000E56
:1009D000013C90E645EA060E8DE60CEA135594EAD2
:1009E0000C0F08BF95EA0C0F3FF43BAF94EA0C0FD5
:1009F0000AD150EA01347FF434AF95EA0C0F7FF44A
:100A000025AF104619462CE795EA0C0F06D152EA9D
:100A100003353FF4FDAE1046194622E750EA410681
:100A200018BF52EA43067FF4C5AE50EA41047FF492
:100A30000DAF52EA43057FF4EBAE12E74FF0FF3CF7
:100A400006E000BF4FF0010C02E000BF4FF0010CC8
:100A50004DF804CD4FEA410C7FEA6C5C4FEA430C41
:100A600018BF7FEA6C5C1BD001B050EA410C0CBF90
:100A700052EA430C91EA030F02BF90EA020F0020F2
:100A8000704710F1000F91EA030F58BF994208BF59
:100A900090422CBFD8176FEAE37040F00100704716
:100AA0004FEA410C7FEA6C5C02D150EA013C07D16D
:100AB0004FEA430C7FEA6C5CD6D152EA033CD3D0B8
:100AC0005DF8040B704700BF8446104662468C46B2
:100AD0001946634600E000BF01B5FFF7B7FF0028E5
:100AE00048BF10F1000F01BD4DF808EDFFF7F4FF0E
:100AF0000CBF012000205DF808FB00BF4DF808ED99
:100B0000FFF7EAFF34BF012000205DF808FB00BFBB
:100B10004DF808EDFFF7E0FF94BF012000205DF8DD
:100B200008FB00BF4DF808EDFFF7CEFF94BF012092
:100B300000205DF808FB00BF4DF808EDFFF7C4FF8B
:100B400034BF012000205DF808FB00BF4FEA410CD4
:100B50007FEA6C5C02D150EA013C0AD14FEA430CB7
:100B60007FEA6C5C02D152EA033C02D14FF00000F4
:100B700070474FF0010070474FEA410212F5001232
:100B800015D211D56FF47873B3EB625212D94FEAD4
:100B9000C12343F0004343EA505311F0004F23FABE
:100BA00002F018BF404270474FF00000704750EA13
:100BB000013005D111F0004008BF6FF000407047D0
:100BC0004FF00000704700BF4FEA4102B2F1E0432E
:100BD00024BFB3F5001CDCF1FE5C0DD901F0004C24
:100BE0004FEAC0024CEA5070B2F1004F40EB830074
:100BF00008BF20F00100704711F0804F21D113F1A0
:100C00003872BCBF01F00040704741F480114FEAD8
:100C10005252C2F11802C2F1200C10FA0CF320FA61
:100C200002F018BF40F001004FEAC1234FEAD3237E
:100C300003FA0CFC40EA0C0023FA02F34FEA4303E8
:100C4000CCE77FEA625307D150EA01331EBF4FF071
:100C5000FE4040F44000704701F0004040F0FE408C
:100C600040F40000704700BF53B94AB9002908BFDB
:100C700000281CBF4FF0FF314FF0FF3000F074B977
:100C8000ADF1080C6DE904CE00F006F8DDF804E0E3
:100C9000DDE9022304B070472DE9F047089E0446C1
:100CA0008846002B40F085808A42154648D9B2FA22
:100CB00082F24AB1C2F1200701FA02F320FA07F7E3
:100CC000954047EA030894404FEA154E230CB8FBC1
:100CD000FEF71FFA85FC0EFB178843EA084307FB63
:100CE0000CF1994209D9EB1807F1FF3080F0E3804D
:100CF000994240F2E080023F2B445B1AA4B2B3FB5E
:100D0000FEF00EFB103344EA034400FB0CFCA44548
:100D100009D92C1900F1FF3380F0CB80A44540F2B3
:100D2000C88002382C4440EA0740A4EB0C0400279A
:100D30001EB1D4400023C6E900433946BDE8F08720
:100D4000002A53D0B2FA82F2002A40F0B680491B42
:100D50004FEA154E1FFA85F80127B1FBFEFC230C64
:100D60000EFB1C1143EA014308FB0CF1994207D921
:100D7000EB180CF1FF3002D2994200F2EC8084466D
:100D8000591AA3B2B1FBFEF00EFB101443EA04445F
:100D900008FB00F8A04507D92C1900F1FF3302D257
:100DA000A04500F2DC801846A4EB080440EA0C40A1
:100DB000BEE78B4208D9002E78D00027C6E9000193
:100DC00038463946BDE8F087B3FA83F77FB98B42DE
:100DD00002D3824200F2BD80841A61EB030301203A
:100DE0009846002EA9D0C6E90048A6E7FFDEC7F165
:100DF0002005BB4022FA05FC4CEA030C01FA07F47B
:100E000020FA05F821FA05F34FEA1C4E48EA0404DB
:100E1000B3FBFEF9210C0EFB19331FFA8CF841EAE3
:100E2000034309FB08FA9A4502FA07F200FA07F1B0
:100E30000BD91CEB030309F1FF3080F088809A4541
:100E400040F28580A9F102096344A3EB0A03A4B22E
:100E5000B3FBFEF00EFB103344EA034400FB08F83A
:100E6000A04508D91CEB040400F1FF336BD2A04568
:100E700069D90238644440EA0940A4EB0804A0FBA5
:100E800002894C45C6464B4654D351D0002E69D0FA
:100E9000B1EB0E0264EB030404FA05F522FA07F342
:100EA000FC401D43C6E90054002746E7374630465C
:100EB00043E7184637E707461FE7C2F1200320FA49
:100EC00003F7954001FA02F021FA03F34FEA154EB9
:100ED0003843010CB3FBFEF71FFA85F80EFB1733FE
:100EE00041EA034107FB08F38B4204FA02F407D9F5
:100EF000691807F1FF3C28D28B4226D9023F2944CA
:100F0000CB1A81B2B3FBFEF00EFB103341EA034172
:100F100000FB08F38B4207D9691800F1FF3C10D29F
:100F20008B420ED902382944C91A40EA074714E710
:100F30004145ABD2B8EB020E69EB0C020138134607
:100F4000A4E76046F0E7184695E76746D8E781468C
:100F50007BE7384645E7ACF1020C2B4410E702383A
:100F60002C4421E73746E8E6704700BF38B5104CFF
:100F7000204605F049FD0F4D284605F045FD0E4879
:100F800005F042FD284605F03FFD204605F03CFDFA
:100F90000A4C4FF40041204603F0D9FB4FF4FA60AD
:100FA00002F0D0FA4FF40041204603F0D0FB38BDE8
:100FB0001C8B0008D486000800870008000C00483D
:100FC00008B50268034B9A4200D008BD02F0ACFAA3
:100FD000FBE700BF002C014038B50C4C204605F063
:100FE00013FD0B4D2868FFF7BFFA02460B46094870
:100FF00005F084FC6868FFF7B7FA02460B4606481E
:1010000005F07CFC204605F0FFFC38BD1C8B000879
:10101000980B0020188700083487000808B503489B
:1010200004F032FEFFF7D8FF08BD00BF980B002088
:1010300038B502F06AFA04F013FC00F03BFE04F04D
:1010400091F82C4BC3E9000100F0CEFD2A4B18703B
:1010500068B92A4C204604F025FD204604F080FDA6
:1010600004F0BCFD04F04CFDFFF780FF0AE02448CB
:1010700005F0CAFCEDE7234805F0C6FC012100207D
:1010800003F0A0FB002003F0CFFF1F4B1B78002BC9
:10109000F1D0FFF7C3FF1C4B00221A701B4C4FF41A
:1010A0008041204603F053FB4FF47A7002F04AFA75
:1010B0004FF48041204603F04AFB154D012128469C
:1010C00003F045FB4FF47A7002F03CFA0121284608
:1010D00003F03DFB4FF40041204603F038FB4FF492
:1010E0007A7002F02FFA4FF40041204603F02FFBF4
:1010F000C1E700BF900B002034020020580A0020F6
:10110000AC860008C886000835020020000C0048A4
:101110000004004870470000B0F5005F00D0704741
:1011200008B5034B01221A70024805F06DFC08BD9A
:1011300035020020988600087047000008B50B7142
:101140004A710122063100F08DFA00B908BD034B47
:10115000034AD421034804F0D1FD00BFC888000829
:10116000A08700080889000870B586B0AAB10446B7
:101170000D4693B901220DF1170100F073FA90B9F1
:101180009DF8173085F80431D72B12D0023BDBB223
:10119000012B40F2848006B070BD4A4B4A4AD921E7
:1011A0004A4804F0ABFD4A4B474ADB21474804F06C
:1011B000A5FD6E4655F8040F6968AA68EB680FC66E
:1011C00028693060AA8AAB7DB280B371012269467A
:1011D000204600F047FA02220DEB0201204600F003
:1011E00041FABDF802305BBAADF80230012201A924
:1011F000204600F037FA01220DF10501204600F0EB
:1012000031FA01220DF10701204600F02BFA0122EC
:1012100002A9204600F026FA01220DF1090120461C
:1012200000F020FA01220DF10A01204600F01AFA1E
:1012300001220DF10B01204600F014FA01220DF1FC
:101240000D01204600F00EFA01220DF10E0120469C
:1012500000F008FA9DF80D30C3F30113032B07D8F3
:10126000DFE803F00F0D020408220BE0022209E080
:10127000184B194A4FF49771184804F03FFD0022AB
:1012800000E001220DF10F01204600F0EBF90028EB
:1012900081D0134B0C4AF0210C4804F02FFDAB8891
:1012A000ADF800300121204600F09CF9012269468A
:1012B000204600F0D7F901220DEB0201204600F094
:1012C000D1F968E71C880008B4870008088900087D
:1012D00028880008548800084C8700085C880008AB
:1012E0007C88000810B582B0044600238DF80730D2
:1012F00001220DF1070100F0B5F99DF80700820900
:1013000001D102B010BD00F03F00D3009840009022
:101310006946204600F0A6F90098F2E730B583B0A0
:1013200004460D4601226946284600F09BF958B94B
:101330002846FFF7D7FF019002AB13E9030084E8CA
:101340000300204603B030BD024B034A5521034839
:1013500004F0D4FC088800086887000808890008A1
:1013600070B582B005460E466C4601462046FFF732
:10137000D5FF331D94E8030083E803002846FFF7F8
:10138000B1FFF060FF2807D882B206F110012846AD
:1013900000F068F902B070BD024B034AC221034855
:1013A00004F0ACFC28890008888700080889000838
:1013B00008B5FFF7D5FF08BD08B5FFF7D1FF08BD99
:1013C00030B583B005460C4601220DF1070100F04F
:1013D00049F9F0B99DF80710C1F38012CB0901F06B
:1013E0003F018DF80710217004391F292CD8DFE840
:1013F00001F0162B2B2B2B2B2B2B2B2B2B2B2B2BB7
:101400002B2B2B2B2B2B2B2B2B2B2B2B2B2B1C2B3B
:101410002621114B114AFF21114804F06FFC21468F
:101420002846FFF7C5FF03B030BD21462846FFF729
:10143000C3FFF8E721462846FFF780FEF3E7214681
:101440002846FFF791FEEEE7064B044A40F21311DF
:10145000034804F053FC00BFE0870008CC87000875
:101460000889000854880008094A11880B0243EAD9
:1014700011239BB25840C0F30313584080EA003058
:1014800000B283B25B0103F4FF53584010807047F1
:101490003602002070B506460D46084B4FF6FF7227
:1014A0001A800024AC4205D2305DFFF7DDFF013425
:1014B000E4B2F7E7014B188870BD00BF3602002088
:1014C0000388194489B201808388994204D9B1FB09
:1014D000F3F203FB1211018070478160002101804B
:1014E000013B838042800173704708B51346002298
:1014F000FFF7F3FF08BD30B48C6884600D88154495
:1015000005800C88144413FA84F39BB243808A88C4
:10151000934201D99B1A43808B88838001230373F4
:1015200030BC7047F8B5037B002B3ED115460E4604
:101530000446438801888B4210D21A448A4202DB57
:1015400041F28A3032E080682A463146184404F07D
:1015500029FC628815446580002027E0D018A28805
:10156000904209DDD71ABFB29A1A1544ADB2A9420A
:101570000DD841F28A3019E0A0682A463146184455
:1015800004F010FC62881544658000200EE0A0681D
:101590003A463146184404F005FC2A46F119A06881
:1015A00004F000FC6580002000E01620F8BD0288F1
:1015B00043889A4202D8981A80B270478088801A6D
:1015C00013FA80F080B2704739B110B50C46FFF7BE
:1015D000EEFFA04203D3002010BD0020704741F26F
:1015E0008A30F9E770B505460E46FFF7EDFF044671
:1015F00008B1204670BD31462846FFF761FFF8E785
:101600002DE9F04105460F4614461E461946FFF7E0
:10161000DBFF8046E0B92A882244AB8892FBF3F1D5
:1016200003FB112189B2701890FBF3F203FB120245
:1016300092B291420FD95B1A9CB2AB682246194410
:10164000384604F0AFFB321BA968381904F0AAFB36
:101650004046BDE8F081AB6832461944384604F094
:10166000A1FBF5E770B50646144613460022FFF7C6
:10167000C7FF054608B1284670BD21463046FFF732
:101680001FFFF8E7F0B5CBB004460026374618E058
:101690009DF81E10634B1A78914204D19DF81C707E
:1016A0009DF81D600DE0604805F028F909E05F4BEA
:1016B0001B68DD682DB10AAB099A08999DF81C00DA
:1016C000A8472046FFF773FF002800F09C8006A97A
:1016D0002046FFF775FE9DF81830043B1F2B00F2E3
:1016E0008C8001A252F823F0AF160008FB17000807
:1016F000FB170008FB170008FB170008FB17000882
:10170000FB170008FB170008FB170008FB17000871
:10171000FB170008FB170008FB170008FB17000861
:10172000FB170008FB170008FB170008FB17000851
:10173000FB170008FB170008FB170008FB17000841
:10174000FB170008FB170008FB170008FB17000831
:10175000FB170008FB17000869170008FB170008B3
:101760008117000891160008304B1B689D68002DFA
:10177000A7D00AAB099A08999DF81C00A847A0E7D2
:101780009DF81C31D72B09D0284B1B685B68002BB8
:1017900097D007A99DF81C01984792E76D460DF177
:1017A0001C0CBCE80F000FC59CE8030045F8040BB7
:1017B00025F8021B090C29709DF80D30C3F30113A5
:1017C000032B07D8DFE803F00F0D020408250BE018
:1017D000022509E0164B174A4FF49771164804F09A
:1017E0008DFA002500E00125144805F087F8294608
:1017F0000DF10F0005F082F8C6E70D4B104A692184
:10180000104804F07BFA57B1084B1B681B681BB1EA
:10181000044A117830469847024B00225A704BB068
:10182000F0BD00BF3C020020B8890008380200204B
:10183000548800089C8900085C880008E889000832
:1018400084890008008A000808B5034B1860006905
:1018500008B100F083F908BD3802002008B500F097
:1018600041F90121034800F063F9034B00225A704B
:1018700008BD00BF851600083C020020014B002275
:101880005A7070473C020020B0B500AF0C460B798F
:10189000DA1D02F4FC72ADEB020D6D4600226946C2
:1018A000FFF7AEFE0E4A13780133DBB21370A27855
:1018B000934201D00A4B1A7021792846FFF7EAFDBE
:1018C0006279C0F30F239A4205D1A379C0B2834253
:1018D00004D0002000E00020BD46B0BD0120FBE7A1
:1018E0006804002030B5C1B0094D2846FFF75FFEFF
:1018F000C4B2224669462846FFF7B4FE4FF47A7315
:10190000224669460348006801F0BEFB41B030BD85
:1019100058040020080D0020F0B583B007460E469D
:101920001546FFF7B7FD134A13780133DBB2137086
:10193000C0228DF8002000248DF801408DF802307F
:101940008DF803508DF80460030A8DF805308DF88A
:101950000600094D072269462846FFF7E3FD324697
:1019600039462846FFF7DEFD2046FFF7BBFF03B0F0
:10197000F0BD00BF690400205804002030B587B0D6
:101980004F4B1C7874BB4F48FFF711FE072802D855
:10199000204607B030BD4C4D072300222946494858
:1019A000FFF72EFE2B78C02B01D16B7873B1454D1C
:1019B00001212846FFF716FE0023414A1370434ACF
:1019C00013702846FFF7F3FD0728E1D83C4B0122AE
:1019D0001A7007213B48FFF705FE3B4B1A793B4B3A
:1019E0001A70D5E73748FFF7E2FD384B1B7898426D
:1019F00001D20024CCE70022324902A8FFF77BFD88
:101A0000314902A8FFF740FF08B32F4BDB78012BC9
:101A10000DD0032B27D0042B2CD0022B31D0052B3B
:101A20003BD02A4B197802A8FFF7DCFD05E0284AD5
:101A30001268002AEDD002A89047244B1D7802A816
:101A4000FFF7B5FD291A89B21E48FFF7CBFD002329
:101A50001E4A13701A4A13701A48FFF7A8FD072888
:101A600096D8002494E71B4A1268002AD3D002A813
:101A70009047E2E7184A1268002ACED002A89047A1
:101A8000DBE78DF80430012102A8FFF7ABFD03224C
:101A9000012101A8FFF740FFCFE7012201A902A819
:101AA000FFF7E0FD9DF804100C4804F027FF0C4BF5
:101AB0001B68002BC1D09DF804009847BDE700BF0C
:101AC0006A040020F00C0020000D00206B040020B0
:101AD000500300206C04002054030020248A0008D6
:101AE0007005002010B50C4C2060FF220B490C48FB
:101AF000FFF7FBFC0020FFF7F5FEFFF73FFF4FF479
:101B0000807208490848FFF7F0FC01220749206865
:101B100000F084FE10BD00BF080D00205803002017
:101B20005804002070040020F00C0020EC0C002071
:101B3000012904D0032905D0042906D07047044B9D
:101B400018607047034B18607047034B1860F5E747
:101B5000500300206C04002054030020014B186047
:101B6000704700BF7005002008B5044B00221A70B2
:101B700080F00102024804F0C1FE08BD7405002097
:101B8000208B000830B583B0054C002525700093EC
:101B900013460A460146034804F0B0FE03B030BDC8
:101BA00074050020848B000830B583B0054C0025F7
:101BB0002570009313460A460146034804F09EFE32
:101BC00003B030BD74050020CC8B000808B5044B71
:101BD00000221A70034804F017FFFFF74FFE08BDFC
:101BE00074050020608B000870B596B0CDE9140133
:101BF000254804F009FF254E032108A803F0E2FA66
:101C0000354608AC0FCC0FC50FCC0FC594E80700C4
:101C100085E8070096F82840002C31D003211C48A5
:101C200004F06CFE1B491C4804F068FE1B4B16AA0E
:101C300012E9030083E80300144E4FF4E1330793E5
:101C40006C4606F110050FCD0FC495E8070084E837
:101C5000070096E80F0003F097FA3269104B1A60FC
:101C6000726A104B1A607068FFF7F8FD0E48FFF7B4
:101C7000EBFD0E4804F0C8FE0124204616B070BDEE
:101C80000B4804F0C1FEF8E7408A00080C0D002064
:101C90009C8A0008C08A0008DC8A0008180000201E
:101CA000440B0020B40A002000000020048B000830
:101CB0006C8A000808B503F04BFA08BD03689A69FE
:101CC00012F0020F01D000229A6203689A6912F0A2
:101CD000010F03D19A6942F001029A61704770B412
:101CE000039E05686868740D04F4806444F07F7492
:101CF00044F4583444F47F7444F0030420EA0400AC
:101D0000C1F3090141EA02411943314301436960CA
:101D100070BC704770B504460D46164603689B6953
:101D200013F0100F01D1002070BD23689A6912F0E2
:101D3000200F17D1B5F1FF3FF7D001F0FDFB801B5D
:101D4000A84201D8002DF0D1636C43F020036364F6
:101D5000202384F84130002384F8423084F8403056
:101D60000120E1E71022DA6123682025DD612046A9
:101D7000FFF7A4FF2268536823F0FF7323F48B332B
:101D800023F4FF7323F001035360636C43F00403F7
:101D9000636484F84150002384F8423084F8403072
:101DA0000120C1E770B504460D46164623689B69BD
:101DB00013F0020F1DD1324629462046FFF7AAFF35
:101DC000C8B9B5F1FF3FF1D001F0B6FB801BA842C6
:101DD00001D8002DEAD1636C43F020036364202313
:101DE00084F84130002384F8423084F840300120E8
:101DF00000E0002070BD0120FCE7F8B505460F4665
:101E000016461C462B689B6937EA03030CBF012367
:101E10000023B34218D1B4F1FF3FF3D001F08CFBA3
:101E2000069BC01AA04201D8002CEBD16B6C43F08A
:101E300020036B64202385F84130002385F842306D
:101E400085F84030012000E00020F8BD70B582B078
:101E5000044615461E46194B00934FF08073F2B2AC
:101E6000FFF73DFF079A06992046FFF79BFFF0B961
:101E7000012E0FD12368EDB29D62079B0093069B54
:101E8000002280212046FFF7B8FF034698B9184684
:101E900002B070BD23682A0A9A62079A0699204602
:101EA000FFF780FF28B92368EDB29D62E5E70123C3
:101EB000EDE70123EBE70123E9E700BF0020008005
:101EC00070B505460C4616462B689B6913F0200F2B
:101ED0001AD1324621462846FFF71CFFB0B901F05F
:101EE0002BFB801BA04201D8002CEDD16B6C43F082
:101EF00020036B64202385F84130002385F84230AD
:101F000085F84030012070BD0020FCE70120FAE791
:101F100070B504460D46164623689B6913F0040FFE
:101F20003ED1324629462046FFF7F4FE01460028FE
:101F300038D123689A6912F0200F13D101F0FCFA0E
:101F4000801BA84201D8002DE6D1636C43F020032A
:101F50006364202384F84130002384F84030012159
:101F6000084670BD9A6912F0040F02D0228D002A33
:101F7000F6D12022DA6121684B6823F0FF7323F445
:101F80008B3323F4FF7323F001034B60002363645E
:101F900084F8412084F8423084F840300121DFE7A2
:101FA0000021DDE70121DBE7002859D010B5044608
:101FB00090F84130002B43D0242384F8413022682C
:101FC000136823F0010313606368226823F07063D1
:101FD00013612268936823F400439360E368012B44
:101FE00033D0A368226843F404439360E368022B70
:101FF00031D02268536843F0007343F400435360C8
:102000002268D36823F40043D360236962691343D1
:10201000A169226843EA0123D360E369216A226847
:102020000B4313602268136843F001031360002020
:102030006064202384F84130206384F8420010BD9E
:1020400080F8403003F052F9B6E7A368226843F401
:1020500000439360CAE723684FF400625A60C8E700
:10206000012070472DE9F04383B090F84150EDB264
:10207000202D40F0A48090F84040012C00F0A48076
:102080001F4691460E4604464FF0010880F84080F6
:1020900001F052FA05460090192342464FF40041E0
:1020A0002046FFF7AAFE002840F09080212384F804
:1020B0004130102384F8423000236364C4F8249034
:1020C00067856363638D9BB2FF2B0AD9FF2222854C
:1020D000424B00934FF0807331462046FFF7FFFDDF
:1020E00018E0628D92B222853C4B00934FF0007352
:1020F000D2B231462046FFF7F2FD0BE0628D92B27C
:102100002285002300934FF00073D2B2314620465F
:10211000FFF7E5FD638D9BB2002B33D02A460A9969
:102120002046FFF73FFE002852D1626A23681278EA
:102130009A62636A01336362638D013B9BB263857C
:10214000238D013B9BB22385628D92B2002AE1D0A0
:10215000002BDFD100950A9B002280212046FFF74B
:102160004CFE002836D1638D9BB2FF2BC6D9FF22CF
:102170002285002300934FF0807331462046FFF7FD
:10218000AEFDC7E72A460A992046FFF799FE0346A7
:1021900010BB22682021D1612068426822F0FF72C2
:1021A00022F48B3222F4FF7222F00102426084F8A2
:1021B0004110002284F8422084F8402000E00223ED
:1021C000184603B0BDE8F0830223F9E70123F7E7DF
:1021D0000123F5E70123F3E70123F1E70020008065
:1021E0002DE9F04383B090F84150EDB2202D40F03E
:1021F000A48090F84040012C00F0A4801F46914636
:102200000E4604464FF0010880F8408001F094F932
:1022100005460090192342464FF400412046FFF73F
:10222000ECFD002840F09080222384F841301023F8
:1022300084F8423000236364C4F8249067856363A4
:10224000638D9BB2FF2B0AD9FF222285424B00935C
:102250004FF0807331462046FFF741FD18E0628D54
:1022600092B222853C4B00934FF00073D2B23146BC
:102270002046FFF734FD0BE0628D92B222850023E9
:1022800000934FF00073D2B231462046FFF727FD8E
:10229000638D9BB2002B33D02A460A992046FFF764
:1022A00037FE002852D123685A6A636A1A70636A3B
:1022B00001336362238D013B9BB22385628D013A1A
:1022C00092B26285628D92B2002AE1D0002BDFD1FA
:1022D00000950A9B002280212046FFF78EFD0028F2
:1022E00036D1638D9BB2FF2BC6D9FF2222850023F6
:1022F00000934FF0807331462046FFF7F0FCC7E7AC
:102300002A460A992046FFF7DBFD034610BB2268E8
:102310002021D1612068426822F0FF7222F48B32C2
:1023200022F4FF7222F00102426084F84110002280
:1023300084F8422084F8402000E00223184603B0CD
:10234000BDE8F0830223F9E70123F7E70123F5E76E
:102350000123F3E70123F1E7002400802DE9F04792
:1023600082B0BDF82C7090F84150EDB2202D40F0B5
:10237000BA800A9CDCB1D7B190F84040012C00F043
:10238000B780984691460E4604464FF0010A80F801
:1023900040A001F0D1F805460090192352464FF4B1
:1023A00000412046FFF729FD30B101239CE04FF4A6
:1023B00000734364012397E0212384F841304023D4
:1023C00084F84230002363640A9A6262678563631B
:1023D00001950C9B009343464A4631462046FFF741
:1023E00035FD70B9638D9BB2FF2B0FD9FF2222857B
:1023F000002300934FF0807331462046FFF76FFCB7
:1024000021E0002384F8403053466DE0628D92B2A3
:102410002285002300934FF00073D2B2314620464C
:10242000FFF75DFC0FE0628D92B2228500230093DE
:102430004FF00073D2B231462046FFF750FC638D57
:102440009BB2002B32D02A460C992046FFF7AAFCFB
:1024500000284FD1626A236812789A62636A013356
:102460006362638D013B9BB26385238D013B9BB20D
:102470002385628D92B2002AE1D0002BDFD1009536
:102480000C9B002280212046FFF7B7FCA0BB638D88
:102490009BB2FF2BC7D9FF222285002300934FF068
:1024A000807331462046FFF71AFCC8E72A460C998C
:1024B0002046FFF705FD034600BB22682021D161BD
:1024C0002068426822F0FF7222F48B3222F4FF72FD
:1024D00022F00102426084F84110002284F8422078
:1024E00084F8402000E00223184602B0BDE8F087DF
:1024F0000223F9E70123F7E70123F5E70123F3E7D7
:1025000090F84130DBB2202B27D190F84030012BDE
:1025100025D010B4012380F84030242380F84130C6
:102520000468226822F0010222600468226822F412
:1025300080522260026813680B43136002681368BC
:1025400043F001031360202380F84130002380F81A
:10255000403018465DF8044B704702207047022057
:10256000704790F84130DBB2202B25D190F84030F5
:10257000012B23D010B4012380F84030242380F8AD
:1025800041300468226822F0010222600268136868
:1025900023F4706343EA012313600268136843F075
:1025A00001031360202380F84130002380F840307D
:1025B00018465DF8044B70470220704702207047B0
:1025C000002853D010B504460023836290F85D3094
:1025D000002B40D0022384F85D302268136823F07A
:1025E00040031360E368B3F5E06F39D90022B3F517
:1025F000706F04D0B3F5E06F01D00021A162216BB0
:1026000021B9B3F5E06F2ED9022323636368A16873
:102610000B4321690B4361690B43A16901F400710C
:102620000B43E1690B43216A0B43A06A2168034312
:102630000B60638B03F00403616A0B43616B0B4314
:10264000E1680B43216813434B600020206601239F
:1026500084F85D3010BD80F85C3002F0D1FFB9E73E
:102660004FF48052C3E701232363CFE70120704773
:102670007047000030B585B0044602685068936822
:10268000C3F3801129B913F0010F02D010F0400FED
:1026900067D113F0020F02D010F0800F65D1C3F3A1
:1026A00040151DB911B913F4807F61D010F0200FCF
:1026B0005ED079B194F85D10C9B203295AD0216E69
:1026C00041F00401216600210091D16800919168D8
:1026D0000091009965B1216E41F001012166002150
:1026E000029191680291116821F040011160029AF3
:1026F00013F4807F09D0236E43F008032366002380
:10270000039323689B680393039B236E002B2FD0B6
:102710002268536823F0E0035360012384F85D309E
:1027200010F0030F2ED02268536823F00303536088
:10273000A36D4BB1154A9A63A06D02F01BF818B156
:10274000236E43F040032366636D8BB10F4A9A6397
:10275000606D02F00FF858B1236E43F0400323661A
:1027600006E0E36C2046984702E0236D2046984738
:1027700005B030BD00230193D368019393680193A2
:10278000019BF5E72046FFF773FFF1E7912700086B
:1027900008B5806A0023A0F84630C387FFF768FFBA
:1027A00008BD40B338B5044603684CF6CC421A6005
:1027B000036845F255521A60036842685A6003681C
:1027C00082689A6000F0B8FE05462368DA6832B184
:1027D00000F0B2FE401B3028F7D9032038BD19693C
:1027E000E268914202D01A610020F7E74AF6AA2275
:1027F0001A600020F2E7012070470268136823F492
:10280000907313600268936823F0010393602023A0
:1028100080F87230002303667047000090F8723031
:10282000DBB2202B58D1002958D0002A58D090F87C
:102830007030012B56D0012380F870304165A0F82C
:102840005820A0F85A20002303668368B3F5805F00
:1028500006D0A3B9036973B9FF23A0F85C3011E077
:10286000036923B940F2FF13A0F85C300AE0FF23AC
:10287000A0F85C3006E07F23A0F85C3002E0B3F102
:10288000805F19D000234367222380F872300268EA
:10289000936843F0010393608368B3F5805F15D0BC
:1028A000114B0366002380F8703001680A6842F417
:1028B00090720A601846704703691BB97F23A0F81D
:1028C0005C30DFE73F23A0F85C30DBE70369002BD7
:1028D000E6D1064B0366E5E702207047012070470A
:1028E00001207047022070470F2900086F29000857
:1028F000704708B501680A6822F040020A60202289
:1029000080F8712000224266FFF7F2FF08BDB0F8A0
:102910005C2090F87230DBB2222B05D00268138B5A
:1029200043F008031383704710B50368998CD2B243
:10293000436D5C1C44650A401A70B0F85A30013B84
:102940009BB2A0F85A3003B110BD0268136823F49B
:10295000907313600268936823F00103936020234F
:1029600080F8723000230366FEF7D4FBECE708B56D
:10297000B0F85C2090F87230DBB2222B05D00268F0
:10298000138B43F00803138308BD0368998C436DD0
:102990000A401A80436D02334365B0F85A30013B58
:1029A0009BB2A0F85A30002BEED10268136823F4D2
:1029B000907313600268936823F0010393602023EF
:1029C00080F8723000230366FEF7A4FBDCE7704753
:1029D00038B504460268D3691168906813F00F0592
:1029E00005D113F0200F02D011F0200F19D12DB115
:1029F00010F001051BD111F4907F18D113F4801F42
:102A000002D010F4800F7DD113F0800F02D011F0AE
:102A1000800F7ED113F0400F02D011F0400F7ED115
:102A200038BD236E002BFBD020469847F8E713F003
:102A3000010F07D011F4807F04D001201062626F73
:102A40000243626713F0020F07D035B122680220FB
:102A50001062626F42F00402626713F0040F07D045
:102A600035B1226804201062626F42F00202626790
:102A700013F0080F09D011F0200F00D12DB12268FA
:102A800008201062626F02436267626F002AC7D03B
:102A900013F0200F06D011F0200F03D0236E0BB1DE
:102AA00020469847636F13F0080F04D123689B6892
:102AB00013F0400F20D02046FFF79FFE23689A684E
:102AC00012F0400F14D09A6822F040029A60E36E30
:102AD00053B1154A9A63E06E01F04CFE00289FD076
:102AE000E06E836B98479BE72046FFF770FF97E700
:102AF0002046FFF76CFF93E72046FFF768FF0023AF
:102B000063678DE74FF480131362204600F08EFB5D
:102B100086E7636E002B83D02046984780E72046E7
:102B2000FFF7E7FE7CE700BF2D2B000808B5806AA1
:102B30000023A0F85A30A0F85230FFF748FF08BD34
:102B40002DE9F0480446016883680269134342692D
:102B50001343C26913430868994A024013430B6048
:102B60002268536823F44053E1680B435360A16922
:102B70002268944B9A4201D0236A1943936823F444
:102B800030630B43936023688F4A934211D08F4A7E
:102B9000934222D08E4A934238D08E4A934260D0DC
:102BA0008D4A934273D0874A934200F08980102562
:102BB0003FE002F55842D2F8882002F00302032ACF
:102BC00009D8DFE802F002049606012531E0042569
:102BD0002FE008252DE010252BE002F5E632D2F893
:102BE000882002F00C020C2A0ED8DFE802F0070D54
:102BF0000D0D090D0D0D840D0D0D0B00002518E0B8
:102C0000042516E0082514E0102512E002F5E43250
:102C1000D2F8882002F03002102A6ED005D9202A7E
:102C20006DD0302A1BD1082503E00AB9002500E049
:102C30001025644A934270D0E369B3F5004F00F069
:102C4000F280082D00F27681DFE815F03B014C019F
:102C50005601740161017401740174016B01102546
:102C6000E7E702F5E232D2F8882002F0C002402AFB
:102C700047D005D9802A46D0C02A06D10825D8E7F2
:102C80000AB90025D5E71025D3E71025D1E702F5CD
:102C9000E032D2F8882002F44072B2F5807F34D05E
:102CA00007D9B2F5007F32D0B2F5407F06D10825B2
:102CB000BFE70AB90025BCE71025BAE71025B8E739
:102CC00002F5C832D2F8882002F44062B2F5806F73
:102CD0001FD007D9B2F5006F1DD0B2F5406F06D1F5
:102CE0000825A6E70AB90025A3E71025A1E71025C6
:102CF0009FE702259DE702259BE7042599E702252A
:102D000097E7042595E7022593E7042591E7022537
:102D10008FE704258DE702258BE7082D00F20D8152
:102D2000DFE815F00C000B0114000B0111000B0182
:102D30000B010B0109004FF4004008E001F050F8CE
:102D400028B9002504E100F055FCF9E72348626842
:102D500002EB4203834200F2F280B0EB023F00F24A
:102D6000F080082D5CD8DFE805F0055B1D5B3F5B5C
:102D70005B5B500001F034F80023070E0602626826
:102D8000500816EB000B47F1000C58466146FDF762
:102D90006BFFA0F54072124B9A4200F2D480236878
:102DA000D860D5E0560800252B46DFF838B04FF044
:102DB000000C1BEB06004CF10001FDF755FFE8E7A6
:102DC000F369FFEF008000400038014000440040FC
:102DD00000480040004C0040005000400024F40037
:102DE000FFFC0F00000024F400F004FC0025070E97
:102DF0000602626850082B4616EB000B47F1000CE8
:102E000058466146FDF730FFC3E7500800252B46C2
:102E100010F500002CBF01210021FDF725FFB8E7C8
:102E200001250020B5E7082D48D8DFE805F0051D8D
:102E30002847334747473E0000F0D2FF62685308F7
:102E400003EB4003B3FBF2F39BB2A3F110014FF687
:102E5000EF72914279D89AB222F00F02C3F3420383
:102E600013432268D36073E000F0CCFF626853081C
:102E700003EB4003B3FBF2F39BB20025E5E7626886
:102E8000530803F1F47303F59043B3FBF2F39BB2E1
:102E90000025DAE700F0AEFB6268530803EB40035D
:102EA000B3FBF2F39BB20025CFE76268530803F54A
:102EB0008033B3FBF2F39BB20025C6E70125002364
:102EC000C3E700F08DFF636800EB5300B0FBF3F045
:102ED00080B2A0F110024FF6EF739A4237D8236800
:102EE000D86035E000F08EFF636800EB5300B0FB64
:102EF000F3F080B20025ECE76368580800F5740031
:102F000000F51050B0FBF3F080B20025E1E700F0CF
:102F100071FB636800EB5300B0FBF3F080B2002557
:102F2000D7E76368580800F50040B0FBF3F080B2C3
:102F30000025CEE701250020CBE7012508E001258B
:102F400006E0012504E0012502E0012500E001255D
:102F50000023236663662846BDE8F088436A13F0C1
:102F6000010F06D00268536823F40033816A0B43D3
:102F70005360436A13F0020F06D00268536823F4CB
:102F80008033C16A0B435360436A13F0040F06D0C9
:102F90000268536823F48023016B0B435360436A38
:102FA00013F0080F06D00268536823F40043416B06
:102FB0000B435360436A13F0100F06D00268936806
:102FC00023F48053816B0B439360436A13F0200F0B
:102FD00006D00268936823F40053C16B0B439360DF
:102FE000436A13F0400F0AD00268536823F4801339
:102FF000016C0B435360036CB3F5801F0BD0436A25
:1030000013F0800F06D00268536823F40023816C0C
:103010000B43536070470268536823F4C003416C4C
:103020000B435360EBE72DE9F04105460F4616468A
:103030009846069C2B68DB6937EA03030CBF012323
:103040000023B3421DD1B4F1FF3FF3D02CB100F007
:1030500073FAA0EB0800A042ECD92A68136823F4A5
:10306000D07313602A68936823F0010393602023D0
:1030700085F8713085F87230002385F870300320B0
:1030800000E00020BDE8F0812DE9F04182B01E464D
:1030900090F87130DBB2202B4ED104460D4690469D
:1030A00000294ED0002A4ED090F87030012B4CD021
:1030B000012380F8703000234367212380F87130AA
:1030C00000F03AFA0746A4F85080A4F8528009E0CC
:1030D000236815F8012B1A85B4F85230013B9BB2D6
:1030E000A4F85230B4F852309BB2ABB100963B46D4
:1030F000002280212046FFF796FF40BBA368B3F56E
:10310000805FE5D12369002BE2D1226835F8023BCC
:10311000C3F308031385DFE700963B4600224021F6
:103120002046FFF780FF034698B9202284F87120DB
:10313000002284F8702000E00223184602B0BDE8A7
:10314000F0810123F9E70123F7E70223F5E70323E1
:10315000F3E70323F1E730B583B004460023436768
:1031600000F0EAF9054623681B6813F0080F0ED13A
:1031700023681B6813F0040F17D1202384F87130E3
:1031800084F87230002084F8700003B030BD6FF016
:103190007E430093034600224FF400112046FFF7C0
:1031A00042FF0028E4D00320EFE76FF07E43009356
:1031B0002B4600224FF480012046FFF734FF002801
:1031C000DBD00320E1E778B310B5044690F8713006
:1031D0000BB3242384F871302268136823F00103B1
:1031E00013602046FFF7ACFC012813D0636ABBB91B
:1031F0002268536823F4904353602268936823F055
:103200002A0393602268136843F001031360204689
:10321000FFF7A1FF10BD80F8703002F02DF9D8E75C
:103220002046FFF79BFEE3E7012070477047704799
:103230000268D36843F00103D36002689168084BC9
:103240000B40062B09D09168054B0B40B3F5803F2E
:1032500003D0136843F0010313600020704700BFE0
:1032600007000100704770477047704710B504466B
:1032700003681A6912F0020F11D0DA6812F0020F17
:103280000DD06FF002021A610123037703689B6976
:1032900013F0030F79D0FFF7E6FF002323772368AD
:1032A0001A6912F0040F12D0DA6812F0040F0ED06F
:1032B0006FF004021A610223237723689B6913F4D9
:1032C000407F68D02046FFF7CEFF00232377236896
:1032D0001A6912F0080F12D0DA6812F0080F0ED037
:1032E0006FF008021A61042323772368DB6913F067
:1032F000030F57D02046FFF7B6FF0023237723683C
:103300001A6912F0100F12D0DA6812F0100F0ED0F6
:103310006FF010021A61082323772368DB6913F426
:10332000407F46D02046FFF79EFF00232377236887
:103330001A6912F0010F03D0DA6812F0010F3FD1C1
:1033400023681A6912F0800F03D0DA6812F0800F38
:103350003DD123681A6912F4807F03D0DA6812F035
:10336000800F3BD123681A6912F0400F03D0DA684E
:1033700012F0400F39D123681A6912F0200F03D0E0
:10338000DA6812F0200F37D110BDFFF76BFF20462F
:10339000FFF76AFF81E72046FFF764FF2046FFF74B
:1033A00063FF92E72046FFF75DFF2046FFF75CFFD3
:1033B000A3E72046FFF756FF2046FFF755FFB4E787
:1033C0006FF001021A612046FDF7FAFDB8E76FF0D1
:1033D00080021A61204600F096F8BAE76FF4807216
:1033E0001A61204600F090F8BCE76FF040021A61C5
:1033F0002046FFF73AFFBEE76FF020021A61204631
:1034000000F080F8C0E700000368304A904212D014
:10341000B0F1804F0FD0A2F5943290420BD002F55C
:103420008062904207D002F58062904203D002F59C
:103430009432904203D123F070034A681343234A25
:1034400090421ED0B0F1804F1BD0A2F59432904232
:1034500017D002F58062904213D002F5806290424C
:103460000FD002F5943290420BD002F540629042A8
:1034700007D002F58062904203D002F5806290424C
:1034800003D123F44073CA68134323F080034A69CD
:10349000134303608B68C3620B6883620B4B9842D3
:1034A0000FD003F5006398420BD003F540639842B8
:1034B00007D003F58063984203D003F580639842F8
:1034C00001D10B690363012343617047002C014064
:1034D000B0B110B5044690F83D3063B1022384F8D2
:1034E0003D30214651F8040BFFF78EFF012384F88D
:1034F0003D30002010BD80F83C30FFF798FEEDE72E
:103500000120704770477047704710B5032001F0E5
:10351000F5F9002002F024F910B10124204610BD75
:10352000044601F0C3FEF9E7024A13680133136051
:10353000704700BF380D0020014B1868704700BF6E
:10354000380D002038B50446FFF7F6FF0546B4F104
:10355000FF3F00D00134FFF7EFFF401BA042FAD33A
:1035600038BD000030B583B00546204B9B6D13F08D
:10357000805F0BD001F032F9B0F5007F17D0802DBD
:103580001FD82DD0702D2DD000211BE0174CA36D1E
:1035900043F08053A365A36D03F080530193019B17
:1035A00001F01CF9A36D23F08053A365E4E7802D9F
:1035B00003D9A02D03D9022104E0002102E001215A
:1035C00000E003210A4A136823F007030B4313604A
:1035D000136803F007038B4206D1002003B030BD0F
:1035E0000221EFE70121EDE70120F7E7001002409B
:1035F00000200240314A9368D26802F0030213F0BF
:103600000C030AD00C2B06D0042B1FD0082B20D083
:103610000020014610E0012AF6D1284A126812F073
:10362000080F0CD1254AD2F89420C2F30322244972
:1036300051F8221043B100200C2B0DD070471F4AC7
:103640001268C2F30312F2E70846F5E71D480021AD
:10365000F2E71D480021EFE7184BDA6802F0030299
:10366000DB68C3F302130133022A0AD0032A1AD0FB
:10367000B1FBF3F3114AD068C0F3062000FB03F05E
:1036800008E01048B0FBF3F30C4AD068C0F3062002
:1036900000FB03F0094BDB68C3F3416301335B00BC
:1036A000B0FBF3F0CAE70848B0FBF3F3034AD06875
:1036B000C0F3062000FB03F0ECE700BF001002405F
:1036C000408C00080024F40000127A00002800F06A
:1036D000C182F0B583B00446AC4B9D6805F00C0583
:1036E000DE6806F00306036813F0100F5DD0E5B145
:1036F0000C2D18D0A369002B00F0B780A34A1368E3
:1037000043F001031360FFF717FF07469F4B1B6849
:1037100013F0020F40F09680FFF70EFFC01B022847
:10372000F4D90323A2E2012EE4D1984B1B6813F0D5
:10373000020F03D0A369002B00F08F82206A934B05
:103740001B6813F0080F5DD0904B1B6803F0F0036B
:1037500098425ED9FFF706FF002840F080828B4B2D
:103760001A6842F008021A601A6822F0F002216A10
:103770000A431A605A6822F47F42E16942EA012250
:103780005A60FFF737FF814B9B68C3F30313804AEE
:10379000D35C03F01F03D8407E4B1860002001F07B
:1037A000DFFF0346002840F06182236813F0010F19
:1037B0007AD0082D6FD00C2D6BD06368B3F5803FA5
:1037C00000F09180B3F5A02F00F093806F4B1A6842
:1037D00022F480321A601A6822F480221A60636828
:1037E000002B00F09380FFF7A7FE0746674B1B688E
:1037F00013F4003F58D1FFF79FFEC01B6428F5D992
:10380000032333E2614BD3F894301B0903F0F00338
:103810009EE75E4B1A6842F008021A601A6822F0AE
:10382000F002216A0A431A605A6822F47F42E16971
:1038300042EA01225A60206AFFF794FE0028A0D0D5
:10384000012313E2514B1A6842F008021A601A6809
:1038500022F0F002216A0A431A605A6822F47F4279
:10386000E16942EA01225A609FE7484A136823F05F
:1038700001031360FFF760FE0746444B1B6813F01B
:10388000020F92D0FFF758FEC01B0228F5D9032380
:10389000ECE1032E91D13D4B1B6813F4003F03D0A4
:1038A0006368002B00F0DD81236813F0020F4FD016
:1038B000042D3CD00C2D38D0E368002B75D0334A52
:1038C000136843F480731360FFF736FE06462F4BF0
:1038D0001B6813F4806F5FD1FFF72EFE801B022858
:1038E000F5D90323C2E1294A136843F480331360F6
:1038F00075E703F18043A3F53C331A6842F4802254
:103900001A601A6842F480321A6068E7FFF714FE02
:1039100007461E4B1B6813F4003FC5D0FFF70CFE93
:10392000C01B6428F5D90323A0E1022EC4D1174B94
:103930001B6813F4806F03D0E368002B00F09381C1
:10394000124A536823F0FE43216943EA016353603E
:10395000236813F0080F53D06369002B39D00B4A4A
:10396000D2F8943043F00103C2F89430FFF7E4FD3D
:103970000646064BD3F8943013F0020F40D1FFF700
:10398000DBFD801B0228F4D903236FE10010024005
:10399000288C000844000020B74A536823F0FE43F7
:1039A000216943EA01635360D2E7B34A136823F401
:1039B00080731360FFF7C0FD0646AF4B1B6813F41E
:1039C000806FC5D0FFF7B8FD801B0228F5D903230F
:1039D0004CE1A94AD2F8943023F00103C2F89430A4
:1039E000FFF7AAFD0646A44BD3F8943013F0020F5C
:1039F00006D0FFF7A1FD801B0228F4D9032335E18F
:103A0000236813F0040F7AD09B4B9B6D13F0805FFB
:103A100036D1994B9A6D42F080529A659B6D03F0B6
:103A200080530193019B0126944B1B6813F4807F04
:103A300028D0A368012B39D0052B3FD08E4BD3F86B
:103A4000902022F00102C3F89020D3F8902022F0B9
:103A50000402C3F89020A368002B3DD0FFF76CFD53
:103A60000746854BD3F8903013F0020F46D1FFF78D
:103A700063FDC01B41F288339842F2D90323F5E07D
:103A80000026D1E77D4A136843F480731360FFF783
:103A900053FD0746794B1B6813F4807FC9D1FFF7AC
:103AA0004BFDC01B0228F5D90323DFE0724AD2F890
:103AB000903043F00103C2F89030CCE76E4BD3F85E
:103AC000902042F00402C3F89020D3F8902042F0F6
:103AD0000102C3F89020BEE7FFF72EFD0746664BB4
:103AE000D3F8903013F0020F08D0FFF725FDC01B6C
:103AF00041F288339842F2D90323B7E0E6B923684C
:103B000013F0200F35D0636AE3B15B4AD2F89830E6
:103B100043F00103C2F89830FFF70EFD0646564BFE
:103B2000D3F8983013F0020F23D1FFF705FD801B67
:103B30000228F4D9032399E04F4A936D23F0805370
:103B40009365DCE74C4AD2F8983023F00103C2F8C1
:103B50009830FFF7F1FC0646474BD3F8983013F046
:103B6000020F06D0FFF7E8FC801B0228F4D90323DC
:103B70007CE0A36A002B78D00C2D7AD0022B23D0C6
:103B80003D4B1A6822F080721A601B6813F0205FA8
:103B900004D1394AD36823F00303D360364AD3688B
:103BA00023F0887323F48033D360FFF7C5FC044609
:103BB000314B1B6813F0007F4AD0FFF7BDFC001BA0
:103BC0000228F5D9032351E02B4A136823F08073B0
:103BD0001360FFF7B1FC0546274B1B6813F0007F0D
:103BE00006D0FFF7A9FC401B0228F5D903233DE0CE
:103BF000236B5A1E636B1B0243EA0213E26A1343F0
:103C0000E26B5208013A43EA4253226C5208013AED
:103C100043EA4263A26B43EAC263174AD360136864
:103C200043F080731360D36843F08073D360FFF771
:103C300083FC0446104B1B6813F0007F06D1FFF78E
:103C40007BFC001B0228F5D903230FE000230DE0C5
:103C500000230BE0012318467047012306E00123EF
:103C600004E0012302E0012300E00023184603B032
:103C7000F0BD0123FAE700BF0010024000700040D1
:103C8000002800F0978070B504464E4B1B6803F087
:103C900007038B420BD24B4A136823F007030B43F5
:103CA0001360136803F007038B4240F085800D46D4
:103CB000236813F0010F39D06368032B09D0022B5E
:103CC00026D063BB404A126812F0020F06D10120D1
:103CD0006FE03D4A126812F0007F6FD03A498A685F
:103CE00022F0030213438B60FFF726FC0646364B97
:103CF0009B6803F00C036268B3EB820F16D0FFF7EA
:103D00001BFC801B41F288339842F0D9032050E01D
:103D10002D4A126812F4003FE0D1012049E02A4AFE
:103D2000126812F4806FD9D1012042E0236813F0A9
:103D3000020F06D0244A936823F0F003A1680B43D6
:103D40009360204B1B6803F00703AB420AD91D4A5E
:103D5000136823F007032B431360136803F0070372
:103D6000AB422DD1236813F0040F06D0164A936896
:103D700023F4E063E1680B439360236813F0080FBA
:103D800007D0114A936823F46053216943EAC103C1
:103D90009360FFF72FFC0C4B9B68C3F303130B4A94
:103DA000D35C03F01F03D840094B1860002001F0DA
:103DB000D7FC70BD012070470120FAE70120F8E729
:103DC0000120F6E70020024000100240288C000885
:103DD00044000020014B1868704700BF44000020D9
:103DE00008B5FFF7F7FF054B9B68C3F30223044AAE
:103DF000D35C03F01F03D84008BD00BF0010024091
:103E0000388C000808B5FFF7E5FF054B9B68C3F346
:103E1000C223044AD35C03F01F03D84008BD00BF8F
:103E200000100240388C00080F2303600B4B9A6887
:103E300002F0030242609A6802F0F00282609A681F
:103E400002F4E062C2609B68DB0803F4E063036194
:103E5000034B1B6803F007030B6070470010024020
:103E600000200240F8B5594BDB6813F0030F18D05F
:103E7000564BDB6803F003030268934202D001242F
:103E80002046F8BD002A00F09F80504BDB68C3F34A
:103E9000021301334268934201D00124F0E7002469
:103EA00009E00368022B58D0032B5DD0012B43D0CF
:103EB0000124002CE4D10F460646444A136823F03F
:103EC00080631360FFF738FB0546404B1B6813F017
:103ED000006F05D0FFF730FB401B0228F5D9032403
:103EE000002CCDD1002F4DD138490B6923F07843F8
:103EF00023F4FE43B068F268D20642EA002213437C
:103F00000B61324A136843F080631360FFF714FBC0
:103F100005462E4B1B6813F0006F05D1FFF70CFB15
:103F2000401B0228F5D90324002CA9D1274A136984
:103F3000B1690B431361A3E7244A126812F0020F20
:103F40001ED0224DEA6822F073024468013C43EA25
:103F500004131343EB600024ABE71C4A126812F40D
:103F6000806FEED10124A4E7184A126812F4003FD2
:103F7000E7D1164A126812F4802FE2D1012498E7A3
:103F8000012496E7012F0FD01048026922F0C06289
:103F900022F4FE42B16873695B08013B5B0643EAA9
:103FA000012313430361ACE70848026922F4C0020D
:103FB00022F4FE42B16833695B08013B5B0543EACA
:103FC0000123134303619CE7012459E700100240D9
:103FD000F8B5504BDB6813F0030F18D04D4BDB687E
:103FE00003F003030268934202D001242046F8BD87
:103FF000002A00F08D80474BDB68C3F302130133C6
:104000004268934201D00124F0E7002409E00368EC
:10401000022B58D0032B5DD0012B43D00124002C60
:10402000E4D10F4606463B4A136823F080531360E1
:10403000FFF782FA0546374B1B6813F0005F05D087
:10404000FFF77AFA401B0228F5D90324002CCDD1C2
:10405000002F4DD12F494B6923F0784323F4FE43C1
:10406000B068F268D20642EA002213434B61294A43
:10407000136843F080531360FFF75EFA0546254B43
:104080001B6813F0005F05D1FFF756FA401B0228AA
:10409000F5D90324002CA9D11E4A536971690B4339
:1040A0005361A3E71B4A126812F0020F1ED0194D8C
:1040B000EA6822F073024468013C43EA04131343A4
:1040C000EB600024ABE7134A126812F4806FEED164
:1040D0000124A4E70F4A126812F4003FE7D10D4A09
:1040E000126812F4802FE2D1012498E7012496E7A8
:1040F0000848426922F0C06222F4FE42B168336986
:104100005B08013B5B0643EA012313434361AEE7CF
:1041100001246BE7001002402DE9F04182B0044613
:10412000036813F4006F33D0836EB3F5800F29D08A
:1041300011D9B3F5000F1ED0B3F5400F18D10027E9
:10414000664AD2F8883023F44003A16E0B43C2F8CC
:10415000883000261EE043B900210430FFF782FEBC
:104160000746002FECD03E4614E00126374611E00A
:10417000012637460EE0594AD36843F48033D360B2
:104180000027DDE700212030FFF722FF0746E8E7A0
:1041900000263746236813F4805F15D0E36EB3F131
:1041A000807F7DD069D9B3F1007F73D0B3F1407FB8
:1041B0006DD1002F7BD1494AD2F8883023F040736B
:1041C000E16E0B43C2F88830236813F4003F00F01F
:1041D0008E80424B9B6D13F0805F6AD13F4B9A6D8E
:1041E00042F080529A659B6D03F080530193019BCE
:1041F0004FF001083A4A136843F480731360FFF7E5
:104200009BF90546364B1B6813F4807F05D1FFF7F9
:1042100093F9401B0228F5D90327002F62D12F4BB9
:10422000D3F8903013F4407316D0D4F888209A4213
:1042300012D02A4AD2F8903023F44073D2F890106A
:1042400041F48031C2F89010D2F8901021F48031FE
:10425000C2F89010C2F8903013F0010F2CD1002F4B
:1042600040F051811D4AD2F8903023F44073D4F8C5
:1042700088100B43C2F8903035E02BB90021201D87
:10428000FFF7F0FD074694E7012637469CE7012635
:10429000374699E7114AD36843F48033D36088E7FF
:1042A000002104F12000FFF793FE074681E73E4618
:1042B0008AE74FF000089DE7FFF73EF90546074BF8
:1042C000D3F8903013F0020FC9D1FFF735F9401B36
:1042D00041F288339842F2D90327C0E70010024028
:1042E000007000403E46B8F1000F40F00E81236898
:1042F00013F0010F08D0A44AD2F8883023F003034A
:10430000A16B0B43C2F88830236813F0020F08D06A
:104310009D4AD2F8883023F00C03E16B0B43C2F8BE
:104320008830236813F0040F08D0974AD2F88830F9
:1043300023F03003216C0B43C2F88830236813F05C
:10434000080F08D0904AD2F8883023F0C003616C7F
:104350000B43C2F88830236813F0100F08D08A4A44
:10436000D2F8883023F44073A16C0B43C2F8883034
:10437000236813F0200F08D0834AD2F8883023F442
:104380004063E16C0B43C2F88830236813F4007F6C
:1043900008D07D4AD2F8883023F44023216E0B43A5
:1043A000C2F88830236813F4806F08D0764AD2F8B8
:1043B000883023F44013616E0B43C2F888302368C1
:1043C00013F0400F08D0704AD2F8883023F44053DD
:1043D000216D0B43C2F88830236813F0800F08D09A
:1043E000694AD2F8883023F44043616D0B43C2F828
:1043F0008830236813F4807F08D0634AD2F888306D
:1044000023F44033A16D0B43C2F88830236813F4C2
:10441000801F08D05C4AD2F89C3023F00303E16D82
:104420000B43C2F89C30236813F4005F0FD0564A48
:10443000D2F8883023F04063216F0B43C2F88830F4
:10444000236FB3F1006F66D0B3F1806F68D023683B
:1044500013F4002F0FD04C4AD2F8883023F0406379
:10446000616F0B43C2F88830636FB3F1006F5FD0A8
:10447000B3F1806F61D0236813F4802F0FD0424ACC
:10448000D2F8883023F04063A16F0B43C2F8883024
:10449000A36FB3F1006F58D0B3F1806F5AD0236887
:1044A00013F4804F0FD0384AD2F8883023F04053AD
:1044B000E16F0B43C2F88830E36FB3F1805F51D0F6
:1044C000B3F1005F56D0236813F4004F09D02E4A91
:1044D000D2F8883023F08043D4F880100B43C2F820
:1044E0008830236813F4803F09D0274AD2F88830F7
:1044F00023F00043D4F884100B43C2F888303046D0
:1045000002B0BDE8F0813E46EDE61F4A936D23F010
:1045100080539365EBE6D36843F48013D36096E74A
:104520000121201DFFF79EFC002890D006468EE753
:10453000D36843F48013D3609DE70121201DFFF76A
:1045400091FC002897D0064695E7D36843F4801382
:10455000D360A4E70121201DFFF784FC00289ED032
:1045600006469CE70221201DFFF77CFC0028AAD00C
:104570000646A8E7022104F12000FFF729FD0028E4
:10458000A1D006469FE700BF00100240F0B482B001
:10459000002336E0072400E00024B4403C43023509
:1045A000644E46F82540644C2568D44304EA050669
:1045B0004F6817F4803F01D042EA05065E4D2E6039
:1045C0006D6804EA05064F6817F4003F01D042EA1F
:1045D0000506594D6E60AD6804EA05064F6817F48C
:1045E000801F01D042EA0506534DAE60ED682C40B5
:1045F0004E6816F4001F01D042EA05044E4AD4600A
:1046000001330A6832FA03F400F0918001249C40DF
:104610002240F5D04D68022D01D0122D10D1DE08B8
:10462000083650F826C003F00705AF000F25BD403F
:104630002CEA050C0D69BD4045EA0C0540F82650F2
:1046400006685F000325BD40ED4305EA060C4E6891
:1046500006F00306BE4046EA0C0606604E6806F108
:10466000FF3CBCF1010F03D9112E01D0122E10D145
:10467000866805EA060CCE68BE4046EA0C068660EF
:10468000466826EA04044E68C6F300169E40264398
:104690004660C46825408C68BC402C43C4604C68AC
:1046A00014F0805FACD0254C256E45F001052566E1
:1046B000246E04F001040194019C9D08AE1C1D4C65
:1046C00054F8267003F00304A6000F24B44027EA30
:1046D0000407B0F1904F3FF45FAF194CA0421AD0DD
:1046E00004F58064A04218D004F58064A04216D07E
:1046F00004F58064A04214D004F58064A04212D076
:1047000004F58064A04210D004F58064A0423FF418
:1047100041AF082441E701243FE702243DE7032499
:104720003BE7042439E7052437E7062435E702B0E0
:10473000F0BC70470000014000040140001002403E
:10474000000400480AB18161704781627047436983
:10475000594041617047000008B5054B5B69034251
:1047600000D108BD024B5861FCF7D6FCF9E700BF49
:104770000004014008B590F82530DBB2022B03D0CD
:104780000423C363012008BD0268136823F00E03ED
:1047900013600268136823F001031360436C03F095
:1047A0001C03016C012202FA03F34B6080F8252000
:1047B000002380F82430836B13B198470020E2E790
:1047C0000020E0E708B5B0F5804F03D0084600F0C0
:1047D0005BF808BD084600F073F8FAE7024B18686A
:1047E00000F4C060704700BF00700040B0F5007F6B
:1047F0000FD01E4B1B6803F4C063B3F5806F33D03A
:104800001A4A136823F4C06343F4806313600020E2
:104810007047164B1B6803F4C063B3F5007F1FD0CD
:10482000124A136823F4C06343F400731360104BFF
:104830001A68322303FB02F30E4AA2FB03239B0CEC
:1048400001330A4A526912F4806F02D00BB1013B66
:10485000F7E7064B5B6913F4806F03D100207047C4
:104860000020704703207047002070470070004010
:104870004400002083DE1B43024A536843F4007364
:1048800053607047007000400B4A136823F0070321
:1048900013600A4A136943F004031361012808D026
:1048A00040BF20BF20BF054A136923F004031361F2
:1048B000704730BFF7E700BF0070004000ED00E038
:1048C0000C4A136823F0070343F0010313600A4AFC
:1048D000136943F004031361012808D040BF20BFCF
:1048E00020BF054A136923F004031361704730BFEA
:1048F000F7E700BF0070004000ED00E0074AD36812
:1049000023F4E0631B041B0C000200F4E060184376
:1049100040F0BF6040F40030D060704700ED00E030
:1049200030B4174BDB68C3F30223C3F10704042C34
:1049300028BF04241D1D062D01D9033B00E00023E0
:104940004FF0FF3505FA04F421EA0401994005FA15
:1049500003F322EA03031943002809DB0901C9B262
:1049600000F1604000F5614080F8001330BC7047F2
:1049700000F00F000901C9B2024B1954F6E700BF5D
:1049800000ED00E014ED00E000F01F0240090123FB
:104990009340024A42F82030704700BF00E100E037
:1049A00043684B609A688A60516099600861036847
:1049B0000133036070470369416882688A60416817
:1049C00051605A68824206D0002202611A68013A98
:1049D0001A601868704782685A60F5E7084B1B68D0
:1049E0001B6823B9074B4FF0FF321A607047044B26
:1049F0001B68DB68DB685A68024B1A60704700BFAF
:104A00007C0500201C060020F8B53A4B1B68002BE3
:104A100064D1394B1D6801351D60C5B9374B1B6822
:104A20001B6843B14FF0100383F31188BFF36F8FFE
:104A3000BFF34F8FFEE7314A1168314B18681060A1
:104A40001960304A136801331360FFF7C7FF2E4B1C
:104A50001B68AB4238D900242C4B1B68DB6A03EB84
:104A600083039A002A4B9B58012B3CD901243AE03E
:104A70000124224B1B681B6843B3204B1B68DB6877
:104A8000DE6873689D4226D3371D3846FFF793FFD3
:104A9000B36A1BB106F11800FFF78DFFF36A01221C
:104AA0009A401C49086802430A6003EB83039A009A
:104AB000394617481044FFF773FFF26A134B1B681F
:104AC000DB6A9A42D4D2D4E70024D2E70E4B4FF0EF
:104AD000FF321A60C0E70C4A1360BDE70E4A136844
:104AE0000133136000240D4B1B6803B101242046E1
:104AF000F8BD00BF14060020240600207C0500201D
:104B000080050020200600201C06002078050020DB
:104B1000840500201806002010060020280600202A
:104B2000214B1B681BB1214B01221A6070471F4BA0
:104B300000221A601E4B1B68B3FA83F3DBB2C3F189
:104B40001F0303EB83018A001A498A5842B94FF0C8
:104B5000100383F31188BFF36F8FBFF34F8FFEE70E
:104B600010B414489A00D418A10001444C68646839
:104B70004C601A4491000831084484420BD003EB86
:104B800083039A000B4B13445B68DA680A4B1A6084
:104B90005DF8044B7047606803EB83029100054A9F
:104BA0000A445060EBE700BF1406002028060020EE
:104BB0001806002084050020780500200000000071
:104BC000074B19680868B0E8F04F80F30988BFF315
:104BD0006F8F4FF0000080F311887047AFF30080B3
:104BE0007805002000000000000000000000000028
:104BF000EFF30980BFF36F8F154B1A681EF0100F8B
:104C000008BF20ED108A20E9F04F10602DE909005F
:104C10004FF0100080F31188BFF34F8FBFF36F8FF9
:104C2000FFF77EFF4FF0000080F3118809BC196880
:104C30000868B0E8F04F1EF0100F08BFB0EC108A03
:104C400080F30988BFF36F8F704700BFAFF3008018
:104C50007805002008B54FF0100383F31188BFF3E7
:104C60006F8FBFF34F8FFFF7CFFE18B1034B4FF09D
:104C700080521A60002383F3118808BD04ED00E020
:104C80002DE9F04F8DB000240794089409940A94FC
:104C90000B94AA4BDA6C42F01002DA64DA6C02F080
:104CA00010020092009ADA6C42F00402DA64DA6CC4
:104CB00002F004020192019ADA6C42F02002DA64F6
:104CC000DA6C02F020020292029ADA6C42F00102DF
:104CD000DA64DA6C02F001020392039ADA6C42F0B1
:104CE0000202DA64DA6C02F002020492049ADA6CCC
:104CF00042F04002DA64DA6C02F040020592059A52
:104D0000DA6C42F00802DA64DB6C03F00803069305
:104D1000069BFFF7B1FD8A4D012240F2FC71284647
:104D2000FFF710FD874E012244F228113046FFF7AD
:104D300009FD22464FF400713046FFF703FDDFF80E
:104D4000588201224FF442714046FFF7FBFC0122DA
:104D500002214FF09040FFF7F5FC012280214FF037
:104D60009040FFF7EFFCDFF8349201220321484620
:104D7000FFF7E8FC22464FF481414846FFF7E2FC8A
:104D800001224FF440417048FFF7DCFC40F2FC7315
:104D900007930127089709940A9407A92846FFF763
:104DA000F5FB4FF4005ACDF81CA0DFF8F4B1CDF8B4
:104DB00020B0099407A94046FFF7E8FBCDF81CA0F6
:104DC000CDF820B0099407A94846FFF7DFFB44F26D
:104DD000A8330793089709940A9407A93046FFF768
:104DE000D5FB4FF442730793089709940A9407A9D7
:104DF0004046FFF7CBFB82230793089709940A9458
:104E000007A94FF09040FFF7C1FB44F283030793DB
:104E1000089709940A9407A94846FFF7B7FB0323AC
:104E200007930894099407A94848FFF7AFFB4FF48C
:104E300040430793089709940A9407A94248FFF74B
:104E4000A5FBCDF81CA0089709940A9407A9304641
:104E5000FFF79CFB40F6010BCDF81CB008970994B6
:104E60000A9407A92846FFF791FB3A465146304677
:104E7000FFF768FC224659462846FFF763FC344B8F
:104E8000C3F800804FF400719980324AC2F8008064
:104E90004FF48073938030480660082282802F4F41
:104EA0004FF0904038608020B8802D4F3E604FF02A
:104EB000200CA7F804C02B4FC7F80080BA802A4FF7
:104EC0003D604FF0040EA7F804E0284F3D604FF01E
:104ED000100EA7F804E0264F3D604FF0400EA7F8F3
:104EE00004E0244F3D60A7F804C0234F3E60BB8020
:104EF000224F3D60BA80224A15609080214A156099
:104F00004FF480609080204A16604FF4804090807B
:104F10001E4A156093801E4B1D6099801D4BC3F87F
:104F2000009002229A80224621462820FFF7F8FCB2
:104F30002820FFF729FD0DB0BDE8F08F00100240DA
:104F40000010004800140048000C004800180048F9
:104F5000180C0020DC0C0020580B002090080020CA
:104F6000200C00203C0B002090070020F80B0020B4
:104F7000500B00205406002024070020A40A002023
:104F800010080020A8080020B80A0020E40C002027
:104F9000100C0020480600200008004800040048CB
:104FA0000000111008B51248124B0360124B436009
:104FB000002383600122C260036143618361C36196
:104FC0000362FCF7F1FF50B900210948FDF798FA98
:104FD00040B900210648FDF7C4FA30B908BDFCF716
:104FE000ABF8F1E7FCF7A8F8F3E7FCF7A5F8F5E76D
:104FF000580A002000540040261A100008B508483E
:10500000084B03600623436040F6FF73C360836070
:10501000FDF7C7FB00B908BDFCF78EF8FBE700BF42
:105020009808002000300040024B4AF6AA221A607D
:10503000704700BF0030004008B5FFF721FEFFF7C2
:10504000DDFF00F00DF9FFF7ADFF4FF4E13000F0A8
:1050500085FC08BD0A4B01221A700A4A5A600A4AA6
:105060009A600A4ADA600A4A1A610A4A5A610A4A86
:105070009A610A4ADA610A4A1A620A4A5A6270470F
:10508000CC0B002018080020B00800206C0900207C
:10509000180C0020DC0C0020580B00209008002089
:1050A000200C00203C0B00200A4B02221A700A4AF6
:1050B0005A600A4A9A600A4ADA600A4A1A610A4A37
:1050C0005A610A4A9A610A4ADA610A4A1A620A4A23
:1050D0005A627047600B0020AC060020900C002044
:1050E000280C002090070020F80B0020500B002017
:1050F0005406002024070020A40A00200A4B0322A3
:105100001A700A4A5A600A4A9A600A4ADA600A4AD7
:105110001A610A4A5A610A4A9A610A4ADA610A4AD3
:105120001A620A4A5A627047A00B002098070020B2
:1051300060060020FC08002010080020A8080020BD
:10514000B80A0020E40C0020100C002048060020C3
:1051500008B5FFF771FFFFF77DFFFFF7A5FFFFF72A
:10516000CDFF08BD10B4064B19680023054C20681C
:105170006268181842EB01015DF8044B704700BFEC
:105180009075FF1F9475FF1F84B008B50DF1080CD2
:105190008CE80F009DF80830022B0BD0032B0DD0AC
:1051A000012B03D0BDE8084004B070470D9800F013
:1051B000EFFBF7E70D9800F00FFCF3E70D9800F018
:1051C0002FFCEFE770B58CB00546022924D00329E7
:1051D00030D0012910D01E4801F016FC00238DF8B4
:1051E0002C302C4601AE0FCE0FC40FCE0FC496E864
:1051F000070084E807000CE0164C012384F82830EF
:1052000006460FCC0FC60FCC0FC694E8070086E801
:10521000070028460CB070BD0F4C012384F82830DD
:1052200006460FCC0FC60FCC0FC694E8070086E8E1
:105230000700EEE7094C012384F8283006460FCC1E
:105240000FC60FCC0FC694E8070086E80700E0E71A
:10525000148C0008CC0B0020600B0020A00B002059
:1052600008B51048104B03604FF48273436000236D
:1052700083604FF4E062C260036143614FF40072E7
:105280008261C3610362436283620722C2620122B8
:1052900002634363FDF794F900B908BDFBF74CFFC7
:1052A000FBE700BF2C0700200030014000B583B0B1
:1052B0000D4B1A6E42F001021A661A6E02F00102DC
:1052C0000092009A9A6D42F080529A659B6D03F0AD
:1052D00080530193019B00220F216FF00100FFF723
:1052E0001FFB03B05DF804FB00100240F0B58FB067
:1052F0000446002309930A930B930C930D930268C1
:10530000554B9A420BD02368544A93422AD0544AB0
:10531000934248D0534A934266D00FB0F0BD524DED
:10532000EB6C43F00203EB64EB6C03F002030093BD
:10533000009B4FF44073099312230A9301230B93AC
:1053400003230C9304230D9309A94848FFF71EF982
:10535000AB6D43F40013AB65AB6D03F40013019325
:10536000019BD0E7404CE36C43F02003E364E36C23
:1053700003F020030293029B0323099312220A9253
:1053800001220B920C9304230D9309A93848FFF7CF
:10539000FDF8A36D43F48003A365A36D03F48003BC
:1053A0000393039BB9E7304CE36C43F00403E364DD
:1053B000E36C03F004030493049B03230993122278
:1053C0000A9201220B920C9304230D9309A92948F8
:1053D000FFF7DCF8A36D43F40003A365A36D03F4AA
:1053E00000030593059B98E71F4CE36C43F02003F3
:1053F000E364E36C03F020030693069BE36C43F045
:105400000203E364E36C03F002030793079B4FF48A
:105410000043099312270A9701260B9603250C9542
:1054200004230D9309A91248FFF7B0F84FF48063E5
:1054300009930A970B960C950D9509A90B48FFF750
:10544000A5F8E36D43F00203E365E36D03F00203A7
:105450000893089B61E700BF0054004000580040DB
:10546000005C00400084004000100240000400483E
:10547000001400480008004870B58EB0002309935E
:105480000A930B930C930D930368554A93420AD0E9
:10549000544A93422CD0544A93425ED0534A93428A
:1054A0007CD00EB070BD524BDA6D42F00102DA656D
:1054B000DA6D02F001020092009ADA6C42F04002CA
:1054C000DA64DB6C03F040030193019BFFF7D4F92E
:1054D0004FF4C073099302230A9300230B93032311
:1054E0000C9308230D9309A94248FFF74FF8D8E71A
:1054F0003F4B9A6D42F480129A659A6D02F48012C5
:105500000292029ADA6C42F00402DA64DA6C02F077
:1055100004020392039ADA6C42F00802DA64DB6C4C
:1055200003F008030493049B4FF48053099302266D
:105530000A9603250C9508240D9409A92E48FFF717
:1055400025F8042309930A9600230B930C950D94D8
:1055500009A92A48FFF71AF8A3E7254B9A6D42F4E8
:1055600000329A659A6D02F400320592059ADA6C5F
:1055700042F00102DA64DB6C03F001030693069B40
:105580000C23099302230A9303230C9307230D93FF
:1055900009A94FF09040FEF7F9FF82E7144B9A6D8E
:1055A00042F480229A659A6D02F480220792079A4B
:1055B000DA6C42F00802DA64DB6C03F0080308934B
:1055C000089B4FF44073099302230A9303230C931F
:1055D00007230D9309A90948FEF7D8FF61E700BF2B
:1055E000008000400050004000440040004800405F
:1055F000001002400018004800080048000C004855
:1056000070B58CB000230793089309930A930B930A
:1056100003684C4A934207D04B4A93422DD04B4AE1
:10562000934252D00CB070BD494B1A6E42F4805276
:105630001A661A6E02F480520092009ADA6C42F0F6
:105640001002DA64DB6C03F010030193019B4FF44A
:10565000704307930223089303230A9305230B93B4
:1056600007A93C48FEF792FF002211462320FFF7CE
:1056700057F92320FFF788F9D4E7354B9A6D42F4A8
:1056800080429A659A6D02F480420292029ADA6C24
:1056900042F00802DA64DB6C03F008030393039B17
:1056A0001B2307930223089303230A9305230B93D9
:1056B00007A92948FEF76AFF002211462420FFF7B8
:1056C0002FF92420FFF760F9ACE7214B9A6D42F4E3
:1056D00000429A659A6D02F400420492049ADA6CD0
:1056E00042F00102DA64DA6C02F001020592059AD6
:1056F000DA6C42F00202DA64DB6C03F00203069318
:10570000069B102307930224089403260A96062575
:105710000B9507A94FF09040FEF738FF3823079309
:105720000894002409940A960B9507A90B48FEF7E4
:105730002DFF224621463320FFF7F2F83320FFF7F2
:1057400023F96FE70030014000380040003C004082
:105750000010024000100048000C004800040048FF
:1057600000B589B0002201461920FFF7D9F81920A9
:10577000FFF70AF9144B1A6E42F400621A661B6EA8
:1057800003F400630193019B02A903A8FEF74CFBFD
:10579000FEF738FB0D4BA3FB00239B0C013B0C4891
:1057A0000C4A026040F2E732C260436000230361AA
:1057B0008360FDF78DFE18B1012009B05DF804FB90
:1057C0000348FDF735FDF8E70010024083DE1B4378
:1057D0003C0D0020002C01407047FEE7FEE7FEE78D
:1057E000FEE7704708B50248FDF740FD08BD00BF61
:1057F0003C0D002008B50248FDF7EAF808BD00BFDF
:10580000AC06002008B50248FDF7E2F808BD00BF6D
:105810009807002008B50248FDF7DAF808BD00BF78
:105820001808002008B50248FCF724FF08BD00BF97
:10583000FC08002008B50248FCF71CFF08BD00BFAB
:10584000280C002008B50248FCF714FF08BD00BF73
:105850006C09002008B54FF40050FEF77DFF08BD2D
:1058600000B5BBB0242200212AA800F0A9FA00212B
:10587000249125912691279128918C2201A800F04E
:105880009FFA1823299301232E932F93602231929C
:1058900002223392349335931223369337923892FF
:1058A0000623399329A8FDF711FF28BB0F23249362
:1058B00003232593802326934FF4806327930021AD
:1058C000289124A8FEF7DCF9C8B9114B01930023F5
:1058D000109311931393149315931693179318938E
:1058E00001A8FEF719FC68B94FF40070FEF77EFFBF
:1058F00058B93BB05DF804FBFBF71EFCD6E7FBF79D
:105900001BFCE2E7FBF718FCEEE7FBF715FCF0E702
:10591000F60110000F49D1F8883043F47003C1F844
:1059200088300D4B1A6842F001021A60002098601E
:105930001A6822F0A85222F410221A604FF4805202
:10594000DA601A6822F480221A6098614FF00063CE
:105950008B60704700ED00E00010024008B50A4B74
:105960000A4A1A60586000229A60DA601A610C21B3
:1059700059619A611A625A621846FDF724FC00B90F
:1059800008BDFBF7D9FBFBE7E009002000800040E1
:1059900008B50F4B0F4A1A60586000229A60DA600F
:1059A0001A610C2159619A61DA611A625A621846C9
:1059B000FDF709FC40B9002207213520FEF7B0FFB2
:1059C0003520FEF7E1FF08BDFBF7B6FBF3E700BFAC
:1059D000180800200050004008B50F4B0F4A1A600D
:1059E000586000229A60DA601A610C2159619A614C
:1059F000DA611A625A621846FDF7E5FB40B90022E7
:105A000007212620FEF78CFF2620FEF7BDFF08BDEC
:105A1000FBF792FBF3E700BFAC0600200044004018
:105A200008B50F4B0F4A1A60586000229A60DA607E
:105A30001A610C2159619A61DA611A625A62184638
:105A4000FDF7C1FB40B9002207212720FEF768FFC0
:105A50002720FEF799FF08BDFBF76EFBF3E700BFB9
:105A6000980700200048004000B583B001904FF631
:105A7000FF73012201A90348FDF706FB019803B05B
:105A80005DF804FBE009002070B50C4616460025C1
:105A9000B54205DA14F8010BFFF7E6FF0135F7E729
:105AA000304670BD014B1860704700BF040C0020E9
:105AB00000B587B08DF817108AB94FF0FF33029305
:105AC000012301930DF117020092024632210B4887
:105AD0000068FCF743FC002007B05DF804FB4FF0C2
