:020000040800F2
:10000000000005207D750008B1720008B372000879
:10001000B5720008B7720008B9720008000000004D
:10002000000000000000000000000000E163000884
:10003000BB7200080000000081640008E56400084D
:10004000CD750008CD750008CD750008CD75000888
:10005000CD750008CD750008CD750008CD75000878
:10006000CD750008CD750008CD750008CD75000868
:10007000CD750008CD750008CD750008CD75000858
:10008000CD750008CD750008CD750008CD75000848
:10009000CD750008CD750008CD750008CD75000838
:1000A000CD750008BD720008CD750008CD7500083B
:1000B000CD750008CD750008CD750008CD75000818
:1000C000CD750008CD750008CD750008FD720008DB
:1000D0000D730008CD750008CD720008DD720008B0
:1000E0002D730008CD750008CD750008CD7500088A
:1000F000CD750008CD750008CD750008CD750008D8
:10010000CD750008CD750008CD7500081D73000879
:10011000CD750008ED720008CD750008CD7500089A
:10012000CD750008CD750008CD750008CD750008A7
:10013000CD750008CD750008CD750008CD75000897
:10014000CD750008CD750008CD750008CD75000887
:10015000CD750008CD750008CD750008CD75000877
:10016000CD750008CD750008CD750008CD75000867
:10017000CD750008CD750008CD75000800000000A1
:10018000CD750008CD750008CD750008CD75000847
:10019000CD750008CD750008CD750008CD75000837
:1001A000CD750008CD7500080000000000000000BB
:1001B00010B5054C237833B9044B13B10448AFF3A1
:1001C00000800123237010BDD0000020000000003B
:1001D0003C87000808B5034B1BB103490348AFF344
:1001E000008008BD00000000D40000203C8700080B
:1001F00001F0FF01102A2BDB10F0070F08D010F8D8
:10020000013B013A8B422DD010F0070F42B3F6D1DB
:10021000F0B441EA012141EA014122F007047FF0F4
:1002200000070023F0E80256083C85EA010586EA4B
:10023000010685FA47F5A3FA87F586FA47F6A5FA87
:1002400087F68EB9EED1F0BC01F0FF0102F0070293
:1002500032B110F8013B013A83EA010313B1F8D13E
:100260000020704701387047002D06BF354603381F
:10027000073815F0010F07D1013015F4807F02BF58
:10028000013015F4C03F0130F0BC0138704700BFA9
:1002900053B94AB9002908BF00281CBF4FF0FF31ED
:1002A0004FF0FF3000F074B9ADF1080C6DE904CEE9
:1002B00000F006F8DDF804E0DDE9022304B0704741
:1002C0002DE9F047089E04468846002B40F08580C3
:1002D0008A42154648D9B2FA82F24AB1C2F12007E1
:1002E00001FA02F320FA07F7954047EA0308944021
:1002F0004FEA154E230CB8FBFEF71FFA85FC0EFBE8
:10030000178843EA084307FB0CF1994209D9EB1817
:1003100007F1FF3080F0E380994240F2E080023F35
:100320002B445B1AA4B2B3FBFEF00EFB103344EA7D
:10033000034400FB0CFCA44509D92C1900F1FF3340
:1003400080F0CB80A44540F2C88002382C4440EABB
:100350000740A4EB0C0400271EB1D4400023C6E9DB
:1003600000433946BDE8F087002A53D0B2FA82F242
:10037000002A40F0B680491B4FEA154E1FFA85F857
:100380000127B1FBFEFC230C0EFB1C1143EA0143C9
:1003900008FB0CF1994207D9EB180CF1FF3002D29F
:1003A000994200F2EC808446591AA3B2B1FBFEF0E8
:1003B0000EFB101443EA044408FB00F8A04507D9DB
:1003C0002C1900F1FF3302D2A04500F2DC80184660
:1003D000A4EB080440EA0C40BEE78B4208D9002E8B
:1003E00078D00027C6E9000138463946BDE8F087D5
:1003F000B3FA83F77FB98B4202D3824200F2BD8009
:10040000841A61EB030301209846002EA9D0C6E9A7
:100410000048A6E7FFDEC7F12005BB4022FA05FC35
:100420004CEA030C01FA07F420FA05F821FA05F367
:100430004FEA1C4E48EA0404B3FBFEF9210C0EFB04
:1004400019331FFA8CF841EA034309FB08FA9A456D
:1004500002FA07F200FA07F10BD91CEB030309F1CA
:10046000FF3080F088809A4540F28580A9F102092A
:100470006344A3EB0A03A4B2B3FBFEF00EFB1033FC
:1004800044EA034400FB08F8A04508D91CEB040427
:1004900000F1FF336BD2A04569D90238644440EAC9
:1004A0000940A4EB0804A0FB02894C45C6464B4614
:1004B00054D351D0002E69D0B1EB0E0264EB03048B
:1004C00004FA05F522FA07F3FC401D43C6E900547F
:1004D000002746E73746304643E7184637E70746E2
:1004E0001FE7C2F1200320FA03F7954001FA02F05A
:1004F00021FA03F34FEA154E3843010CB3FBFEF724
:100500001FFA85F80EFB173341EA034107FB08F396
:100510008B4204FA02F407D9691807F1FF3C28D28C
:100520008B4226D9023F2944CB1A81B2B3FBFEF09D
:100530000EFB103341EA034100FB08F38B4207D95D
:10054000691800F1FF3C10D28B420ED902382944C1
:10055000C91A40EA074714E74145ABD2B8EB020E8F
:1005600069EB0C0201381346A4E76046F0E7184631
:1005700095E76746D8E781467BE7384645E7ACF123
:10058000020C2B4410E702382C4421E73746E8E6FA
:10059000704700BF00B583B0194B1B785BB31423C1
:1005A0008DF80030174B1B888DF801301B0A8DF831
:1005B00002304FF0FF31144B186805F043FD032162
:1005C000684601F0A3F990B90D4A1378013313700E
:1005D00040F6B83005F0DCFC0B4B186805F062FD06
:1005E000084A13880133138003B05DF804FB044B01
:1005F00001221A70ECE7054807F0B6FBF4E700BFEC
:10060000EE000020EC0000204C4902206C8700081E
:1006100008B5084807F0A8FB074B1B7803B108BDD5
:10062000064BD3E9000101F0EDF8034B187001F01F
:100630004FF9F4E794870008EE000020F04A02200A
:1006400008B502E0012005F0A3FC4FF0FF310120C6
:1006500005F09EF90128F5D101F070F9F2E70000EC
:1006600008B5034B834200D008BD01F06BF9FBE7EE
:100670002047022030B583B01A4C204607F074FBA7
:10068000194D284607F070FB184807F06DFB284607
:1006900007F06AFB204607F067FB154B6C4693E8B2
:1006A000030084E80300134807F0D8FA217821B149
:1006B000114807F0D3FA0134F8E7104807F054FB6B
:1006C0000F4C4FF40041204603F003FE4FF4FA6054
:1006D00002F0D0F94FF40041204603F0FAFD03B0D8
:1006E00030BD00BFB4930008F08700081C880008E4
:1006F000F04A0220308800083C880008448800083E
:10070000000C004800B58BB002F097F906F014FE1B
:1007100001F02CF906F072FA2A4CC4E90001FFF747
:10072000A9FFD4E9000101F06DF8274B18700028EB
:1007300043D10026099609A805F07EFC234B1860DA
:1007400004AC234D0FCD0FC42B682360314604A8A1
:1007500005F004FC1F4B186001F0D2F8304606F09B
:10076000AFF91D4B03933246012103A805F01AFC93
:100770001A4B186041F2883105F028FC184B02939F
:100780003246012102A805F00DFC164B18604EF60A
:10079000602105F01BFC144B01933246012101A896
:1007A00005F000FC114B1860114905F00FFC1148D1
:1007B00007F0DAFA05F0CDFBFEE70F4807F0D4FAB0
:1007C000B7E700BFF04A0220EE0000204C490220AB
:1007D000588700085C4B0220C16A0008E04B0220E9
:1007E00095050008E445022011060008584B022038
:1007F00080EE3600D4870008B887000808B5026884
:10080000034B9A4200D008BD02F026F9FBE700BF77
:10081000002C01407047000008B50B714A7101229D
:10082000063100F09BFC00B908BD034B034AD421FC
:10083000034806F0CDFE00BF44910008108900086F
:100840008491000870B586B0AAB104460D4693B9EC
:1008500001220DF1170100F081FC90B99DF81730CD
:1008600085F80431D72B12D0023BDBB2012B40F2CA
:10087000848006B070BD4A4B4A4AD9214A4806F0E6
:10088000A7FE4A4B474ADB21474806F0A1FE6E46C9
:1008900055F8040F6968AA68EB680FC628693060CC
:1008A000AA8AAB7DB280B37101226946204600F06E
:1008B00055FC02220DEB0201204600F04FFCBDF872
:1008C00002305BBAADF80230012201A9204600F0E7
:1008D00045FC01220DF10501204600F03FFC0122FC
:1008E0000DF10701204600F039FC012202A9204643
:1008F00000F034FC01220DF10901204600F02EFC2D
:1009000001220DF10A01204600F028FC01220DF120
:100910000B01204600F022FC01220DF10D012046C2
:1009200000F01CFC01220DF10E01204600F016FC27
:100930009DF80D30C3F30113032B07D8DFE803F054
:100940000F0D020408220BE0022209E0184B194A9D
:100950004FF49771184806F03BFE002200E0012298
:100960000DF10F01204600F0F9FB002881D0134B58
:100970000C4AF0210C4806F02BFEAB88ADF8003095
:100980000121204600F0AAFB01226946204600F022
:10099000E5FB01220DEB0201204600F0DFFB68E7DA
:1009A000989000082489000884910008A490000809
:1009B000D090000860880008D8900008F8900008DF
:1009C00010B582B0044600238DF8073001220DF1E6
:1009D000070100F0C3FB9DF80700820901D102B0B6
:1009E00010BD00F03F00D3009840009069462046BB
:1009F00000F0B4FB0098F2E730B585B005460191F0
:100A00003F2926D9B1F5804F2FD20124B1F5800FAF
:100A100000D30324A301DBB28DF80F3004AA2244D3
:100A200012F80C2C13448DF80F3001220DF10F0138
:100A3000284600F0E7FAD0B9013CE4B2012201AB4C
:100A40001919284600F0DEFAB8B9002CF4D105B027
:100A500030BD012201A900F0D5FA0028F7D00A4BD9
:100A60000A4A3F210A4806F0B3FD0224CEE7094BAB
:100A7000064A4C21064806F0ABFD074B034A4F21BE
:100A8000034806F0A5FD00BF088F00087C88000819
:100A9000849100083C8F0008648F000830B583B053
:100AA00004460D4601226946284600F057FB58B916
:100AB0002846FFF785FF019002AB13E9030084E8A5
:100AC0000300204603B030BD024B034A55210348C2
:100AD00006F07EFD84900008988800088491000844
:100AE00070B582B005460E466C4601462046FFF7BB
:100AF000D5FF331D94E8030083E803002846FFF781
:100B00005FFFF060FF2807D882B206F11001284687
:100B100000F024FB02B070BD024B034AC22103481F
:100B200006F056FDA4910008F8880008849100089A
:100B300008B5FFF7D5FF08BD08B5FFF7D1FF08BD21
:100B4000F0B583B0EAB104460E461F461546322181
:100B500000F09DFAD8B93146204600F098FAE0B985
:100B6000D72E20D0022E6ED0032E00F0C0803A4641
:100B70002946204600F046FA002840F0F98003B0EC
:100B8000F0BD7E4B7E4A6B217E4806F021FD7E4BF8
:100B90007B4A6C217B4806F01BFD7C4B784A6D211B
:100BA000784806F015FD2978204600F070FA90B9D3
:100BB0006978204600F06BFA98B9A978204600F0D1
:100BC00066FAA0B9AB78C3F30113032B19D8DFE899
:100BD00003F0211F14166E4B694A7121694806F013
:100BE000F7FC6C4B664A7221664806F0F1FC6A4BD2
:100BF000634A7321634806F0EBFC08260BE00226EB
:100C000009E0664B664A4FF49771664806F0E0FCCF
:100C1000002600E00126E978204600F038FA60B9A5
:100C20003246291D204600F0EDF90028A7D05E4B82
:100C3000534A7621534806F0CBFC5C4B504A752151
:100C4000504806F0C5FC95F82810490001F0FE0157
:100C5000204600F01CFA60BB95F82910204600F0F1
:100C600016FA60BB10222946204600F0CBF960BB83
:100C70001022A918204600F0C5F960BB2B6A1BBAE8
:100C8000009304226946204600F0BCF948BB6B6A19
:100C90001BBA019304220DEB0201204600F0B2F9C9
:100CA00000283FF46CAF424B354A8321354806F0AB
:100CB0008FFC404B324A7B21324806F089FC3E4B88
:100CC0002F4A7C212F4806F083FC3C4B2C4A7D2187
:100CD0002C4806F07DFC3A4B294A7E21294806F033
:100CE00077FC384B264A8021264806F071FC95F89F
:100CF0002010490001F0FE01204600F0C8F9F8B9C3
:100D000095F82110204600F0C2F9F8B908222946CA
:100D1000204600F077F9F8B90822A918204600F01B
:100D200071F9F8B91022A918204600F06BF90028D3
:100D30003FF425AF244B124A8C21124806F048FCA0
:100D40001C4B0F4A88210F4806F042FC1F4B0C4AEF
:100D500089210C4806F03CFC1D4B094A8A210948B0
:100D600006F036FC1B4B064A8B21064806F030FC89
:100D7000194B034A9021034806F02AFC9C8900087D
:100D8000B888000884910008AC890008E089000850
:100D90000C8A00085C8A0008B48A0008D090000819
:100DA00060880008D8900008708B0008108B00083D
:100DB000408D0008CC8B0008008C0008608C000877
:100DC000B48C0008088D0008808E0008788D00081B
:100DD000D88D00082C8E0008D48E0008F8B5044683
:100DE0000F4616461D46202100F051F998B93946A4
:100DF000204600F04CF9A0B931462046FFF7FCFD33
:100E000029462046FFF7F8FDAAB20699204600F0D1
:100E1000F9F860B9F8BD094B094A9721094806F06D
:100E2000D7FB094B064A9821064806F0D1FB074B31
:100E3000034A9B21034806F0CBFB00BFA08F0008AC
:100E4000D48800088491000870890008DC8F0008AD
:100E500030B583B005460C4601220DF1070100F0C4
:100E60007DF9F0B99DF80710C1F38012CB0901F0AC
:100E70003F018DF80710217004391F292CD8DFE8B5
:100E800001F0162B2B2B2B2B2B2B2B2B2B2B2B2B2C
:100E90002B2B2B2B2B2B2B2B2B2B2B2B2B2B1C2BB1
:100EA0002621114B114AFF21114806F091FB2146E2
:100EB0002846FFF73DFE03B030BD21462846FFF728
:100EC0003BFEF8E721462846FFF7A6FCF3E721465C
:100ED0002846FFF7B7FCEEE7064B044A40F2131131
:100EE000034806F075FB00BF5C9000083C890008D1
:100EF00084910008D090000838B504460D46D20110
:100F000042F0340101F0B40100F0C1F828B92946DB
:100F1000204600F0BCF838B938BD074B074A4FF4FB
:100F2000A871074806F054FB064B044A40F25111E1
:100F3000034806F04DFB00BF0890000850890008E8
:100F40008491000830900008094A11880B0243EA96
:100F500011239BB25840C0F30313584080EA00307D
:100F600000B283B25B0103F4FF5358401080704716
:100F7000F000002070B506460D46084B4FF6FF7294
:100F80001A800024AC4205D2305DFFF7DDFF01344A
:100F9000E4B2F7E7014B188870BD00BFF0000020F5
:100FA0000388194489B201808388994204D9B1FB2E
:100FB000F3F203FB12110180704781600021018070
:100FC000013B838042800173704708B513460022BD
:100FD000FFF7F3FF08BD30B48C6884600D881544BA
:100FE00005800C88144413FA84F39BB243808A88EA
:100FF000934201D99B1A43808B888380012303731A
:1010000030BC7047F8B5037B002B3ED115460E4629
:101010000446438801888B4210D21A448A4202DB7C
:1010200041F28A3032E080682A463146184406F0A0
:1010300023FB628815446580002027E0D018A28831
:10104000904209DDD71ABFB29A1A1544ADB2A9422F
:101050000DD841F28A3019E0A0682A46314618447A
:1010600006F00AFB62881544658000200EE0A06847
:101070003A463146184406F0FFFA2A46F119A068AC
:1010800006F0FAFA6580002000E01620F8BD00B5F1
:1010900083B08DF8071001220DF10701FFF7B2FFB1
:1010A00003B05DF804FB028843889A4202D8981A7C
:1010B00080B270478088801A13FA80F080B270473F
:1010C00039B110B50C46FFF7EEFFA04203D3002064
:1010D00010BD0020704741F28A30F9E770B505462F
:1010E0000E46FFF7EDFF044608B1204670BD3146BD
:1010F0002846FFF755FFF8E72DE9F04105460F4672
:1011000014461E461946FFF7DBFF8046E0B92A88E1
:101110002244AB8892FBF3F103FB112189B27018D2
:1011200090FBF3F203FB120292B291420FD95B1AC9
:101130009CB2AB6822461944384606F09DFA321B31
:10114000A968381906F098FA4046BDE8F081AB6806
:1011500032461944384606F08FFAF5E770B5064670
:10116000144613460022FFF7C7FF054608B128467C
:1011700070BD21463046FFF713FFF8E7F0B5CBB05E
:1011800004460026374618E09DF81E10634B1A7877
:10119000914204D19DF81C709DF81D600DE06048DF
:1011A00006F05CFD09E05F4B1B68DD682DB10AAB02
:1011B000099A08999DF81C00A8472046FFF773FF7D
:1011C000002800F09C8006A92046FFF741FE9DF80C
:1011D0001830043B1F2B00F28C8001A252F823F040
:1011E000A7110008F3120008F3120008F312000818
:1011F000F3120008F3120008F3120008F3120008BB
:10120000F3120008F3120008F3120008F3120008AA
:10121000F3120008F3120008F3120008F31200089A
:10122000F3120008F3120008F3120008F31200088A
:10123000F3120008F3120008F3120008F31200087A
:10124000F3120008F3120008F3120008F31200086A
:1012500061120008F31200087912000889110008D1
:10126000304B1B689D68002DA7D00AAB099A0899DE
:101270009DF81C00A847A0E79DF81C31D72B09D08A
:10128000284B1B685B68002B97D007A99DF81C01B1
:10129000984792E76D460DF11C0CBCE80F000FC596
:1012A0009CE8030045F8040B25F8021B090C297083
:1012B0009DF80D30C3F30113032B07D8DFE803F0CB
:1012C0000F0D020408250BE0022509E0164B174A12
:1012D0004FF49771164806F07BF9002500E00125D0
:1012E000144806F0BBFC29460DF10F0006F0B6FCD1
:1012F000C6E70D4B104A6921104806F069F957B14D
:10130000084B1B681B681BB1044A1178304698478C
:10131000024B00225A704BB0F0BD00BFF800002015
:1013200050920008F4000020D090000818920008A5
:10133000D890000880920008009200089892000857
:1013400008B5034B1860006908B100F015FA08BD34
:10135000F400002010B500240748FFF7A4FE48B1B0
:10136000312C07D800F018F9052001F083FB013477
:10137000E4B2F1E710BD00BF444C022008B500F014
:10138000BFF90121034800F0E1F9034B00225A7034
:1013900008BD00BF7D110008F8000020014B0022AD
:1013A0005A707047F800002070B50F4B5B78ABB9EE
:1013B0000D4D01246C702E1D4FF4807205F1140147
:1013C0003046FFF702FE094B197829700A191A7086
:1013D00022463046FFF790FD204670BD044806F0D7
:1013E0003DFC0020F9E700BFF80000200C020020BF
:1013F000349200082DE9F04782B006460F46904629
:1014000099460A9CFFF7D0FF0546C8B12378DBB1A7
:10141000012B20D0022B25D0164C04F1040ACDF864
:10142000009043463A4631465046FFF7D7FC5046B7
:10143000FFF739FE0122C1B204F1140000F07AF87E
:10144000284602B0BDE8F0870C23221DD7210A48A8
:10145000FFF776FBE0E72223221D03210648FFF772
:101460006FFBD9E72C23221D02210348FFF768FBFD
:10147000D2E700BFF8000020FC000020B0B500AFAC
:101480000C460B79DA1D02F4FC72ADEB020D6D46D1
:1014900000226946FFF730FE0E4A13780133DBB2B3
:1014A0001370A278934201D00A4B1A702179284612
:1014B000FFF760FD6279C0F30F239A4205D1A3794B
:1014C000C0B2834204D0002000E00020BD46B0BD81
:1014D0000120FBE72803002030B5C1B0094D2846A4
:1014E000FFF7E1FDC4B2224669462846FFF736FE03
:1014F0004FF47A73224669460348006801F05CF8AD
:1015000041B030BD180300205C4C022010B5064CE1
:1015100001222146054B186800F018FC01222146E3
:101520000348FFF76FFD10BD404C02205C4C0220C9
:10153000444C0220F0B583B007460E461546FFF72F
:1015400019FD134A13780133DBB21370C0228DF8F2
:10155000002000248DF801408DF802308DF80350F2
:101560008DF80460030A8DF805308DF80600094DEA
:10157000072269462846FFF745FD32463946284688
:10158000FFF740FD2046FFF7A7FF03B0F0BD00BF07
:10159000290300201803002030B587B04F4B1C787A
:1015A00074BB4F48FFF77FFD072802D8204607B0DD
:1015B00030BD4C4D0723002229464948FFF79CFDCA
:1015C0002B78C02B01D16B7873B1454D0121284692
:1015D000FFF784FD0023414A1370434A13702846E5
:1015E000FFF761FD0728E1D83C4B01221A70072163
:1015F0003B48FFF773FD3B4B1A793B4B1A70D5E71D
:101600003748FFF750FD384B1B78984201D2002431
:10161000CCE70022324902A8FFF7DDFC314902A8DD
:10162000FFF72CFF08B32F4BDB78012B0DD0032BDA
:1016300027D0042B2CD0022B31D0052B3BD02A4BAA
:10164000197802A8FFF74AFD05E0284A1268002A27
:10165000EDD002A89047244B1D7802A8FFF723FD88
:10166000291A89B21E48FFF739FD00231E4A13705C
:101670001A4A13701A48FFF716FD072896D8002457
:1016800094E71B4A1268002AD3D002A89047E2E7E9
:10169000184A1268002ACED002A89047DBE78DF8DE
:1016A0000430012102A8FFF719FD0322012101A83E
:1016B000FFF740FFCFE7012201A902A8FFF74EFD87
:1016C0009DF804100C4806F0C9FA0C4B1B68002B5F
:1016D000C1D09DF804009847BDE700BF2A03002051
:1016E000444C0220544C02202B0300201002002006
:1016F0002C03002014020020BC92000830040020BB
:1017000010B50C4C2060FF220B490C48FFF75DFC24
:101710000020FFF7E1FEFFF73FFF4FF4807208491A
:101720000848FFF752FC01220749206800F00EFB31
:1017300010BD00BF5C4C02201802002018030020DE
:1017400030030020444C0220404C0220012904D0E8
:10175000032905D0042906D07047044B1860704750
:10176000034B18607047034B1860F5E71002002028
:101770002C03002014020020014B1860704700BFAA
:101780003004002008B5044B00221A7080F00102DA
:10179000024806F063FA08BD34040020E89300080C
:1017A00030B583B0054C00252570009313460A46DA
:1017B0000146034806F052FA03B030BD340400205D
:1017C0004C94000830B583B0054C0025257000937B
:1017D00013460A460146034806F040FA03B030BDFE
:1017E000340400209494000808B5044B00221A70B9
:1017F000034806F0B9FAFFF7D1FD08BD3404002014
:101800002894000870B596B0CDE91401254806F07B
:10181000ABFA254E032108A805F020FA354608AC9E
:101820000FCC0FC50FCC0FC594E8070085E8070063
:1018300096F82840002C31D003211C4806F00EFAFF
:101840001B491C4806F00AFA1B4B16AA12E90300B2
:1018500083E80300144E4FF4E13307936C4606F11E
:1018600010050FCD0FC495E8070084E8070096E83F
:101870000F0005F0D5F93269104B1A60726A104BEF
:101880001A607068FFF77AFD0E48FFF759FD0E48A1
:1018900006F06AFA0124204616B070BD0B4806F027
:1018A00063FAF8E7D8920008604C022034930008ED
:1018B000589300087493000818000020A84A0220DA
:1018C0001C4A0220000000209C930008049300089A
:1018D00010B50A4C236800229988186802F0F4FCBD
:1018E000322001F0C7F8236801229988186802F0B5
:1018F000EBFC4FF47A7001F0BDF810BD1C4A0220D9
:10190000014B186001207047AC4A022030B583B00B
:101910000C46084B009303460A4600214020FFF77F
:1019200069FD05462146044806F098F9284603B0AB
:1019300030BD00BF14000020B893000808B5FFF7C1
:1019400009FD08BD08B5FFF7E1FD064B1B7803B1A3
:1019500008BD054B186805F0CFF9024B01221A703B
:10196000F6E700BF34040020AC4A022008B505F0B9
:101970003BF908BD002859D010B5044690F8413015
:10198000002B43D0242384F841302268136823F0CD
:10199000010313606368226823F070631361226897
:1019A000936823F400439360E368012B33D0A3686A
:1019B000226843F404439360E368022B31D0226829
:1019C000536843F0007343F4004353602268D368C4
:1019D00023F40043D360236962691343A169226839
:1019E00043EA0123D360E369216A22680B43136051
:1019F0002268136843F00103136000206064202311
:101A000084F84130206384F8420010BD80F84030F3
:101A100005F0D8F9B6E7A368226843F40043936061
:101A2000CAE723684FF400625A60C8E70120704794
:101A300090F84130DBB2202B27D190F84030012BB9
:101A400025D010B4012380F84030242380F84130A1
:101A50000468226822F0010222600468226822F4ED
:101A600080522260026813680B4313600268136897
:101A700043F001031360202380F84130002380F8F5
:101A8000403018465DF8044B704702207047022032
:101A9000704790F84130DBB2202B25D190F84030D0
:101AA000012B23D010B4012380F84030242380F888
:101AB00041300468226822F0010222600268136843
:101AC00023F4706343EA012313600268136843F050
:101AD00001031360202380F84130002380F8403058
:101AE00018465DF8044B704702207047022070478B
:101AF000002853D010B504460023836290F85D306F
:101B0000002B40D0022384F85D302268136823F054
:101B100040031360E368B3F5E06F39D90022B3F5F1
:101B2000706F04D0B3F5E06F01D00021A162216B8A
:101B300021B9B3F5E06F2ED9022323636368A1684E
:101B40000B4321690B4361690B43A16901F40071E7
:101B50000B43E1690B43216A0B43A06A21680343ED
:101B60000B60638B03F00403616A0B43616B0B43EF
:101B7000E1680B43216813434B600020206601237A
:101B800084F85D3010BD80F85C3005F0A5FAB9E747
:101B90004FF48052C3E701232363CFE7012070474E
:101BA0007047000030B585B00446026850689368FD
:101BB000C3F3801129B913F0010F02D010F0400FC8
:101BC00067D113F0020F02D010F0800F65D1C3F37C
:101BD00040151DB911B913F4807F61D010F0200FAA
:101BE0005ED079B194F85D10C9B203295AD0216E44
:101BF00041F00401216600210091D16800919168B3
:101C00000091009965B1216E41F00101216600212A
:101C1000029191680291116821F040011160029ACD
:101C200013F4807F09D0236E43F00803236600235A
:101C3000039323689B680393039B236E002B2FD091
:101C40002268536823F0E0035360012384F85D3079
:101C500010F0030F2ED02268536823F00303536063
:101C6000A36D4BB1154A9A63A06D02F045FB18B104
:101C7000236E43F040032366636D8BB10F4A9A6372
:101C8000606D02F039FB58B1236E43F040032366C8
:101C900006E0E36C2046984702E0236D2046984713
:101CA00005B030BD00230193D3680193936801937D
:101CB000019BF5E72046FFF773FFF1E7C11C000821
:101CC00008B5806A0023A0F84630C387FFF768FF95
:101CD00008BD40B338B5044603684CF6CC421A60E0
:101CE000036845F255521A60036842685A600368F7
:101CF00082689A6000F0B8FE05462368DA6832B15F
:101D000000F0B2FE401B3028F7D9032038BD196916
:101D1000E268914202D01A610020F7E74AF6AA224F
:101D20001A600020F2E7012070470268136823F46C
:101D3000907313600268936823F00103936020237B
:101D400080F87230002303667047000090F872300C
:101D5000DBB2202B58D1002958D0002A58D090F857
:101D60007030012B56D0012380F870304165A0F807
:101D70005820A0F85A20002303668368B3F5805FDB
:101D800006D0A3B9036973B9FF23A0F85C3011E052
:101D9000036923B940F2FF13A0F85C300AE0FF2387
:101DA000A0F85C3006E07F23A0F85C3002E0B3F1DD
:101DB000805F19D000234367222380F872300268C5
:101DC000936843F0010393608368B3F5805F15D097
:101DD000114B0366002380F8703001680A6842F4F2
:101DE00090720A601846704703691BB97F23A0F8F8
:101DF0005C30DFE73F23A0F85C30DBE70369002BB2
:101E0000E6D1064B0366E5E70220704701207047E4
:101E100001207047022070473F1E00089F1E0008E7
:101E2000704708B501680A6822F040020A60202263
:101E300080F8712000224266FFF7F2FF08BDB0F87B
:101E40005C2090F87230DBB2222B05D00268138B35
:101E500043F008031383704710B50368998CD2B21E
:101E6000436D5C1C44650A401A70B0F85A30013B5F
:101E70009BB2A0F85A3003B110BD0268136823F476
:101E8000907313600268936823F00103936020232A
:101E900080F8723000230366FEF7E2FBECE708B53A
:101EA000B0F85C2090F87230DBB2222B05D00268CB
:101EB000138B43F00803138308BD0368998C436DAB
:101EC0000A401A80436D02334365B0F85A30013B33
:101ED0009BB2A0F85A30002BEED10268136823F4AD
:101EE000907313600268936823F0010393602023CA
:101EF00080F8723000230366FEF7B2FBDCE7704720
:101F000038B504460268D3691168906813F00F056C
:101F100005D113F0200F02D011F0200F19D12DB1EF
:101F200010F001051BD111F4907F18D113F4801F1C
:101F300002D010F4800F7DD113F0800F02D011F089
:101F4000800F7ED113F0400F02D011F0400F7ED1F0
:101F500038BD236E002BFBD020469847F8E713F0DE
:101F6000010F07D011F4807F04D001201062626F4E
:101F70000243626713F0020F07D035B122680220D6
:101F80001062626F42F00402626713F0040F07D020
:101F900035B1226804201062626F42F0020262676B
:101FA00013F0080F09D011F0200F00D12DB12268D5
:101FB00008201062626F02436267626F002AC7D016
:101FC00013F0200F06D011F0200F03D0236E0BB1B9
:101FD00020469847636F13F0080F04D123689B686D
:101FE00013F0400F20D02046FFF79FFE23689A6829
:101FF00012F0400F14D09A6822F040029A60E36E0B
:1020000053B1154A9A63E06E02F076F900289FD02A
:10201000E06E836B98479BE72046FFF770FF97E7DA
:102020002046FFF76CFF93E72046FFF768FF002389
:1020300063678DE74FF480131362204600F08EFB38
:1020400086E7636E002B83D02046984780E72046C2
:10205000FFF7E7FE7CE700BF5D20000808B5806A57
:102060000023A0F85A30A0F85230FFF748FF08BD0F
:102070002DE9F04804460168836802691343426908
:102080001343C26913430868994A024013430B6023
:102090002268536823F44053E1680B435360A169FD
:1020A0002268944B9A4201D0236A1943936823F41F
:1020B00030630B43936023688F4A934211D08F4A59
:1020C000934222D08E4A934238D08E4A934260D0B7
:1020D0008D4A934273D0874A934200F0898010253D
:1020E0003FE002F55842D2F8882002F00302032AAA
:1020F00009D8DFE802F002049606012531E0042544
:102100002FE008252DE010252BE002F5E632D2F86D
:10211000882002F00C020C2A0ED8DFE802F0070D2E
:102120000D0D090D0D0D840D0D0D0B00002518E092
:10213000042516E0082514E0102512E002F5E4322B
:10214000D2F8882002F03002102A6ED005D9202A59
:102150006DD0302A1BD1082503E00AB9002500E024
:102160001025644A934270D0E369B3F5004F00F044
:10217000F280082D00F27681DFE815F03B014C017A
:102180005601740161017401740174016B01102521
:10219000E7E702F5E232D2F8882002F0C002402AD6
:1021A00047D005D9802A46D0C02A06D10825D8E7CD
:1021B0000AB90025D5E71025D3E71025D1E702F5A8
:1021C000E032D2F8882002F44072B2F5807F34D039
:1021D00007D9B2F5007F32D0B2F5407F06D108258D
:1021E000BFE70AB90025BCE71025BAE71025B8E714
:1021F00002F5C832D2F8882002F44062B2F5806F4E
:102200001FD007D9B2F5006F1DD0B2F5406F06D1CF
:102210000825A6E70AB90025A3E71025A1E71025A0
:102220009FE702259DE702259BE7042599E7022504
:1022300097E7042595E7022593E7042591E7022512
:102240008FE704258DE702258BE7082D00F20D812D
:10225000DFE815F00C000B0114000B0111000B015D
:102260000B010B0109004FF4004008E001F050F8A9
:1022700028B9002504E100F055FCF9E7234862681D
:1022800002EB4203834200F2F280B0EB023F00F225
:10229000F080082D5CD8DFE805F0055B1D5B3F5B37
:1022A0005B5B500001F034F80023070E0602626801
:1022B000500816EB000B47F1000C58466146FDF73D
:1022C000E7FFA0F54072124B9A4200F2D4802368D7
:1022D000D860D5E0560800252B46DFF838B04FF01F
:1022E000000C1BEB06004CF10001FDF7D1FFE8E705
:1022F000F369FFEF008000400038014000440040D7
:1023000000480040004C0040005000400024F40011
:10231000FFFC0F00000024F400F004FC0025070E71
:102320000602626850082B4616EB000B47F1000CC2
:1023300058466146FDF7ACFFC3E7500800252B4621
:1023400010F500002CBF01210021FDF7A1FFB8E727
:1023500001250020B5E7082D48D8DFE805F0051D68
:102360002847334747473E0000F0D2FF62685308D2
:1023700003EB4003B3FBF2F39BB2A3F110014FF662
:10238000EF72914279D89AB222F00F02C3F342035E
:1023900013432268D36073E000F0CCFF62685308F7
:1023A00003EB4003B3FBF2F39BB20025E5E7626861
:1023B000530803F1F47303F59043B3FBF2F39BB2BC
:1023C0000025DAE700F0AEFB6268530803EB400338
:1023D000B3FBF2F39BB20025CFE76268530803F525
:1023E0008033B3FBF2F39BB20025C6E7012500233F
:1023F000C3E700F08DFF636800EB5300B0FBF3F020
:1024000080B2A0F110024FF6EF739A4237D82368DA
:10241000D86035E000F08EFF636800EB5300B0FB3E
:10242000F3F080B20025ECE76368580800F574000B
:1024300000F51050B0FBF3F080B20025E1E700F0AA
:1024400071FB636800EB5300B0FBF3F080B2002532
:10245000D7E76368580800F50040B0FBF3F080B29E
:102460000025CEE701250020CBE7012508E0012566
:1024700006E0012504E0012502E0012500E0012538
:102480000023236663662846BDE8F088436A13F09C
:10249000010F06D00268536823F40033816A0B43AE
:1024A0005360436A13F0020F06D00268536823F4A6
:1024B0008033C16A0B435360436A13F0040F06D0A4
:1024C0000268536823F48023016B0B435360436A13
:1024D00013F0080F06D00268536823F40043416BE1
:1024E0000B435360436A13F0100F06D002689368E1
:1024F00023F48053816B0B439360436A13F0200FE6
:1025000006D00268936823F40053C16B0B439360B9
:10251000436A13F0400F0AD00268536823F4801313
:10252000016C0B435360036CB3F5801F0BD0436AFF
:1025300013F0800F06D00268536823F40023816CE7
:102540000B43536070470268536823F4C003416C27
:102550000B435360EBE72DE9F04105460F46164665
:102560009846069C2B68DB6937EA03030CBF0123FE
:102570000023B3421DD1B4F1FF3FF3D02CB100F0E2
:1025800073FAA0EB0800A042ECD92A68136823F480
:10259000D07313602A68936823F0010393602023AB
:1025A00085F8713085F87230002385F8703003208B
:1025B00000E00020BDE8F0812DE9F04182B01E4628
:1025C00090F87130DBB2202B4ED104460D46904678
:1025D00000294ED0002A4ED090F87030012B4CD0FC
:1025E000012380F8703000234367212380F8713085
:1025F00000F03AFA0746A4F85080A4F8528009E0A7
:10260000236815F8012B1A85B4F85230013B9BB2B0
:10261000A4F85230B4F852309BB2ABB100963B46AE
:10262000002280212046FFF796FF40BBA368B3F548
:10263000805FE5D12369002BE2D1226835F8023BA7
:10264000C3F308031385DFE700963B4600224021D1
:102650002046FFF780FF034698B9202284F87120B6
:10266000002284F8702000E00223184602B0BDE882
:10267000F0810123F9E70123F7E70223F5E70323BC
:10268000F3E70323F1E730B583B004460023436743
:1026900000F0EAF9054623681B6813F0080F0ED115
:1026A00023681B6813F0040F17D1202384F87130BE
:1026B00084F87230002084F8700003B030BD6FF0F1
:1026C0007E430093034600224FF400112046FFF79B
:1026D00042FF0028E4D00320EFE76FF07E43009331
:1026E0002B4600224FF480012046FFF734FF0028DC
:1026F000DBD00320E1E778B310B5044690F87130E1
:102700000BB3242384F871302268136823F001038B
:1027100013602046FFF7ACFC012813D0636ABBB9F5
:102720002268536823F4904353602268936823F02F
:102730002A0393602268136843F001031360204664
:10274000FFF7A1FF10BD80F8703004F001FCD8E75E
:102750002046FFF79BFEE3E7012070477047704774
:102760000268D36843F00103D36002689168084BA4
:102770000B40062B09D09168054B0B40B3F5803F09
:1027800003D0136843F0010313600020704700BFBB
:1027900007000100704770477047704710B5044646
:1027A00003681A6912F0020F11D0DA6812F0020FF2
:1027B0000DD06FF002021A610123037703689B6951
:1027C00013F0030F79D0FFF7E6FF00232377236888
:1027D0001A6912F0040F12D0DA6812F0040F0ED04A
:1027E0006FF004021A610223237723689B6913F4B4
:1027F000407F68D02046FFF7CEFF00232377236871
:102800001A6912F0080F12D0DA6812F0080F0ED011
:102810006FF008021A61042323772368DB6913F041
:10282000030F57D02046FFF7B6FF00232377236816
:102830001A6912F0100F12D0DA6812F0100F0ED0D1
:102840006FF010021A61082323772368DB6913F401
:10285000407F46D02046FFF79EFF00232377236862
:102860001A6912F0010F03D0DA6812F0010F3FD19C
:1028700023681A6912F0800F03D0DA6812F0800F13
:102880003DD123681A6912F4807F03D0DA6812F010
:10289000800F3BD123681A6912F0400F03D0DA6829
:1028A00012F0400F39D123681A6912F0200F03D0BB
:1028B000DA6812F0200F37D110BDFFF76BFF20460A
:1028C000FFF76AFF81E72046FFF764FF2046FFF726
:1028D00063FF92E72046FFF75DFF2046FFF75CFFAE
:1028E000A3E72046FFF756FF2046FFF755FFB4E762
:1028F0006FF001021A612046FDF780FFB8E76FF024
:1029000080021A61204600F096F8BAE76FF48072F0
:102910001A61204600F090F8BCE76FF040021A619F
:102920002046FFF73AFFBEE76FF020021A6120460B
:1029300000F080F8C0E700000368304A904212D0EF
:10294000B0F1804F0FD0A2F5943290420BD002F537
:102950008062904207D002F58062904203D002F577
:102960009432904203D123F070034A681343234A00
:1029700090421ED0B0F1804F1BD0A2F5943290420D
:1029800017D002F58062904213D002F58062904227
:102990000FD002F5943290420BD002F54062904283
:1029A00007D002F58062904203D002F58062904227
:1029B00003D123F44073CA68134323F080034A69A8
:1029C000134303608B68C3620B6883620B4B9842AE
:1029D0000FD003F5006398420BD003F54063984293
:1029E00007D003F58063984203D003F580639842D3
:1029F00001D10B690363012343617047002C01403F
:102A0000B0B110B5044690F83D3063B1022384F8AC
:102A10003D30214651F8040BFFF78EFF012384F867
:102A20003D30002010BD80F83C30FFF798FEEDE708
:102A30000120704770477047704710B5032001F0C0
:102A4000D9FC002004F0F8FB10B10124204610BD91
:102A5000044604F097F9F9E7024A1368013313605A
:102A6000704700BF8C4C0220014B1868704700BFB4
:102A70008C4C022038B50446FFF7F6FF0546B4F14A
:102A8000FF3F00D00134FFF7EFFF401BA042FAD315
:102A900038BD000030B583B00546204B9B6D13F068
:102AA000805F0BD001F050FCB0F5007F17D0802D77
:102AB0001FD82DD0702D2DD000211BE0174CA36DF9
:102AC00043F08053A365A36D03F080530193019BF2
:102AD00001F03AFCA36D23F08053A365E4E7802D59
:102AE00003D9A02D03D9022104E0002102E0012135
:102AF00000E003210A4A136823F007030B43136025
:102B0000136803F007038B4206D1002003B030BDE9
:102B10000221EFE70121EDE70120F7E70010024075
:102B200000200240314A9368D26802F0030213F099
:102B30000C030AD00C2B06D0042B1FD0082B20D05E
:102B40000020014610E0012AF6D1284A126812F04E
:102B5000080F0CD1254AD2F89420C2F3032224494D
:102B600051F8221043B100200C2B0DD070471F4AA2
:102B70001268C2F30312F2E70846F5E71D48002188
:102B8000F2E71D480021EFE7184BDA6802F0030274
:102B9000DB68C3F302130133022A0AD0032A1AD0D6
:102BA000B1FBF3F3114AD068C0F3062000FB03F039
:102BB00008E01048B0FBF3F30C4AD068C0F30620DD
:102BC00000FB03F0094BDB68C3F3416301335B0097
:102BD000B0FBF3F0CAE70848B0FBF3F3034AD06850
:102BE000C0F3062000FB03F0ECE700BF001002403A
:102BF000509500080024F40000127A00002800F02C
:102C0000C182F0B583B00446AC4B9D6805F00C055D
:102C1000DE6806F00306036813F0100F5DD0E5B11F
:102C20000C2D18D0A369002B00F0B780A34A1368BD
:102C300043F001031360FFF717FF07469F4B1B6824
:102C400013F0020F40F09680FFF70EFFC01B022822
:102C5000F4D90323A2E2012EE4D1984B1B6813F0B0
:102C6000020F03D0A369002B00F08F82206A934BE0
:102C70001B6813F0080F5DD0904B1B6803F0F00346
:102C800098425ED9FFF706FF002840F080828B4B08
:102C90001A6842F008021A601A6822F0F002216AEB
:102CA0000A431A605A6822F47F42E16942EA01222B
:102CB0005A60FFF737FF814B9B68C3F30313804AC9
:102CC000D35C03F01F03D8407E4B1860002004F053
:102CD000B3FA0346002840F06182236813F0010F25
:102CE0007AD0082D6FD00C2D6BD06368B3F5803F80
:102CF00000F09180B3F5A02F00F093806F4B1A681D
:102D000022F480321A601A6822F480221A60636802
:102D1000002B00F09380FFF7A7FE0746674B1B6868
:102D200013F4003F58D1FFF79FFEC01B6428F5D96C
:102D3000032333E2614BD3F894301B0903F0F00313
:102D40009EE75E4B1A6842F008021A601A6822F089
:102D5000F002216A0A431A605A6822F47F42E1694C
:102D600042EA01225A60206AFFF794FE0028A0D0B0
:102D7000012313E2514B1A6842F008021A601A68E4
:102D800022F0F002216A0A431A605A6822F47F4254
:102D9000E16942EA01225A609FE7484A136823F03A
:102DA00001031360FFF760FE0746444B1B6813F0F6
:102DB000020F92D0FFF758FEC01B0228F5D903235B
:102DC000ECE1032E91D13D4B1B6813F4003F03D07F
:102DD0006368002B00F0DD81236813F0020F4FD0F1
:102DE000042D3CD00C2D38D0E368002B75D0334A2D
:102DF000136843F480731360FFF736FE06462F4BCB
:102E00001B6813F4806F5FD1FFF72EFE801B022832
:102E1000F5D90323C2E1294A136843F480331360D0
:102E200075E703F18043A3F53C331A6842F480222E
:102E30001A601A6842F480321A6068E7FFF714FEDD
:102E400007461E4B1B6813F4003FC5D0FFF70CFE6E
:102E5000C01B6428F5D90323A0E1022EC4D1174B6F
:102E60001B6813F4806F03D0E368002B00F093819C
:102E7000124A536823F0FE43216943EA0163536019
:102E8000236813F0080F53D06369002B39D00B4A25
:102E9000D2F8943043F00103C2F89430FFF7E4FD18
:102EA0000646064BD3F8943013F0020F40D1FFF7DB
:102EB000DBFD801B0228F4D903236FE100100240E0
:102EC0003895000868000020B74A536823F0FE4395
:102ED000216943EA01635360D2E7B34A136823F4DC
:102EE00080731360FFF7C0FD0646AF4B1B6813F4F9
:102EF000806FC5D0FFF7B8FD801B0228F5D90323EA
:102F00004CE1A94AD2F8943023F00103C2F894307E
:102F1000FFF7AAFD0646A44BD3F8943013F0020F36
:102F200006D0FFF7A1FD801B0228F4D9032335E169
:102F3000236813F0040F7AD09B4B9B6D13F0805FD6
:102F400036D1994B9A6D42F080529A659B6D03F091
:102F500080530193019B0126944B1B6813F4807FDF
:102F600028D0A368012B39D0052B3FD08E4BD3F846
:102F7000902022F00102C3F89020D3F8902022F094
:102F80000402C3F89020A368002B3DD0FFF76CFD2E
:102F90000746854BD3F8903013F0020F46D1FFF768
:102FA00063FDC01B41F288339842F2D90323F5E058
:102FB0000026D1E77D4A136843F480731360FFF75E
:102FC00053FD0746794B1B6813F4807FC9D1FFF787
:102FD0004BFDC01B0228F5D90323DFE0724AD2F86B
:102FE000903043F00103C2F89030CCE76E4BD3F839
:102FF000902042F00402C3F89020D3F8902042F0D1
:103000000102C3F89020BEE7FFF72EFD0746664B8E
:10301000D3F8903013F0020F08D0FFF725FDC01B46
:1030200041F288339842F2D90323B7E0E6B9236826
:1030300013F0200F35D0636AE3B15B4AD2F89830C1
:1030400043F00103C2F89830FFF70EFD0646564BD9
:10305000D3F8983013F0020F23D1FFF705FD801B42
:103060000228F4D9032399E04F4A936D23F080534B
:103070009365DCE74C4AD2F8983023F00103C2F89C
:103080009830FFF7F1FC0646474BD3F8983013F021
:10309000020F06D0FFF7E8FC801B0228F4D90323B7
:1030A0007CE0A36A002B78D00C2D7AD0022B23D0A1
:1030B0003D4B1A6822F080721A601B6813F0205F83
:1030C00004D1394AD36823F00303D360364AD36866
:1030D00023F0887323F48033D360FFF7C5FC0446E4
:1030E000314B1B6813F0007F4AD0FFF7BDFC001B7B
:1030F0000228F5D9032351E02B4A136823F080738B
:103100001360FFF7B1FC0546274B1B6813F0007FE7
:1031100006D0FFF7A9FC401B0228F5D903233DE0A8
:10312000236B5A1E636B1B0243EA0213E26A1343CA
:10313000E26B5208013A43EA4253226C5208013AC8
:1031400043EA4263A26B43EAC263174AD36013683F
:1031500043F080731360D36843F08073D360FFF74C
:1031600083FC0446104B1B6813F0007F06D1FFF769
:103170007BFC001B0228F5D903230FE000230DE0A0
:1031800000230BE0012318467047012306E00123CA
:1031900004E0012302E0012300E00023184603B00D
:1031A000F0BD0123FAE700BF0010024000700040AC
:1031B000002800F0978070B504464E4B1B6803F062
:1031C00007038B420BD24B4A136823F007030B43D0
:1031D0001360136803F007038B4240F085800D46AF
:1031E000236813F0010F39D06368032B09D0022B39
:1031F00026D063BB404A126812F0020F06D10120AC
:103200006FE03D4A126812F0007F6FD03A498A6839
:1032100022F0030213438B60FFF726FC0646364B71
:103220009B6803F00C036268B3EB820F16D0FFF7C4
:103230001BFC801B41F288339842F0D9032050E0F8
:103240002D4A126812F4003FE0D1012049E02A4AD9
:10325000126812F4806FD9D1012042E0236813F084
:10326000020F06D0244A936823F0F003A1680B43B1
:103270009360204B1B6803F00703AB420AD91D4A39
:10328000136823F007032B431360136803F007034D
:10329000AB422DD1236813F0040F06D0164A936871
:1032A00023F4E063E1680B439360236813F0080F95
:1032B00007D0114A936823F46053216943EAC1039C
:1032C0009360FFF72FFC0C4B9B68C3F303130B4A6F
:1032D000D35C03F01F03D840094B1860002003F0B3
:1032E000ABFF70BD012070470120FAE70120F8E72D
:1032F0000120F6E700200240001002403895000847
:1033000068000020014B1868704700BF680000206B
:1033100008B5FFF7F7FF054B9B68C3F30223044A88
:10332000D35C03F01F03D84008BD00BF001002406B
:103330004895000808B5FFF7E5FF054B9B68C3F308
:10334000C223044AD35C03F01F03D84008BD00BF6A
:1033500000100240489500080F2303600B4B9A6849
:1033600002F0030242609A6802F0F00282609A68FA
:1033700002F4E062C2609B68DB0803F4E06303616F
:10338000034B1B6803F007030B60704700100240FB
:1033900000200240F8B5594BDB6813F0030F18D03A
:1033A000564BDB6803F003030268934202D001240A
:1033B0002046F8BD002A00F09F80504BDB68C3F325
:1033C000021301334268934201D00124F0E7002444
:1033D00009E00368022B58D0032B5DD0012B43D0AA
:1033E0000124002CE4D10F460646444A136823F01A
:1033F00080631360FFF738FB0546404B1B6813F0F2
:10340000006F05D0FFF730FB401B0228F5D90324DD
:10341000002CCDD1002F4DD138490B6923F07843D2
:1034200023F4FE43B068F268D20642EA0022134356
:103430000B61324A136843F080631360FFF714FB9B
:1034400005462E4B1B6813F0006F05D1FFF70CFBF0
:10345000401B0228F5D90324002CA9D1274A13695F
:10346000B1690B431361A3E7244A126812F0020FFB
:103470001ED0224DEA6822F073024468013C43EA00
:1034800004131343EB600024ABE71C4A126812F4E8
:10349000806FEED10124A4E7184A126812F4003FAD
:1034A000E7D1164A126812F4802FE2D1012498E77E
:1034B000012496E7012F0FD01048026922F0C06264
:1034C00022F4FE42B16873695B08013B5B0643EA84
:1034D000012313430361ACE70848026922F4C002E8
:1034E00022F4FE42B16833695B08013B5B0543EAA5
:1034F0000123134303619CE7012459E700100240B4
:10350000F8B5504BDB6813F0030F18D04D4BDB6858
:1035100003F003030268934202D001242046F8BD61
:10352000002A00F08D80474BDB68C3F302130133A0
:103530004268934201D00124F0E7002409E00368C7
:10354000022B58D0032B5DD0012B43D00124002C3B
:10355000E4D10F4606463B4A136823F080531360BC
:10356000FFF782FA0546374B1B6813F0005F05D062
:10357000FFF77AFA401B0228F5D90324002CCDD19D
:10358000002F4DD12F494B6923F0784323F4FE439C
:10359000B068F268D20642EA002213434B61294A1E
:1035A000136843F080531360FFF75EFA0546254B1E
:1035B0001B6813F0005F05D1FFF756FA401B022885
:1035C000F5D90324002CA9D11E4A536971690B4314
:1035D0005361A3E71B4A126812F0020F1ED0194D67
:1035E000EA6822F073024468013C43EA041313437F
:1035F000EB600024ABE7134A126812F4806FEED13F
:103600000124A4E70F4A126812F4003FE7D10D4AE3
:10361000126812F4802FE2D1012498E7012496E782
:103620000848426922F0C06222F4FE42B168336960
:103630005B08013B5B0643EA012313434361AEE7AA
:1036400001246BE7001002402DE9F04182B00446EE
:10365000036813F4006F33D0836EB3F5800F29D065
:1036600011D9B3F5000F1ED0B3F5400F18D10027C4
:10367000664AD2F8883023F44003A16E0B43C2F8A7
:10368000883000261EE043B900210430FFF782FE97
:103690000746002FECD03E4614E00126374611E0E5
:1036A000012637460EE0594AD36843F48033D3608D
:1036B0000027DDE700212030FFF722FF0746E8E77B
:1036C00000263746236813F4805F15D0E36EB3F10C
:1036D000807F7DD069D9B3F1007F73D0B3F1407F93
:1036E0006DD1002F7BD1494AD2F8883023F0407346
:1036F000E16E0B43C2F88830236813F4003F00F0FA
:103700008E80424B9B6D13F0805F6AD13F4B9A6D68
:1037100042F080529A659B6D03F080530193019BA8
:103720004FF001083A4A136843F480731360FFF7BF
:103730009BF90546364B1B6813F4807F05D1FFF7D4
:1037400093F9401B0228F5D90327002F62D12F4B94
:10375000D3F8903013F4407316D0D4F888209A42EE
:1037600012D02A4AD2F8903023F44073D2F8901045
:1037700041F48031C2F89010D2F8901021F48031D9
:10378000C2F89010C2F8903013F0010F2CD1002F26
:1037900040F051811D4AD2F8903023F44073D4F8A0
:1037A00088100B43C2F8903035E02BB90021201D62
:1037B000FFF7F0FD074694E7012637469CE7012610
:1037C000374699E7114AD36843F48033D36088E7DA
:1037D000002104F12000FFF793FE074681E73E46F3
:1037E0008AE74FF000089DE7FFF73EF90546074BD3
:1037F000D3F8903013F0020FC9D1FFF735F9401B11
:1038000041F288339842F2D90327C0E70010024002
:10381000007000403E46B8F1000F40F00E81236872
:1038200013F0010F08D0A44AD2F8883023F0030324
:10383000A16B0B43C2F88830236813F0020F08D045
:103840009D4AD2F8883023F00C03E16B0B43C2F899
:103850008830236813F0040F08D0974AD2F88830D4
:1038600023F03003216C0B43C2F88830236813F037
:10387000080F08D0904AD2F8883023F0C003616C5A
:103880000B43C2F88830236813F0100F08D08A4A1F
:10389000D2F8883023F44073A16C0B43C2F888300F
:1038A000236813F0200F08D0834AD2F8883023F41D
:1038B0004063E16C0B43C2F88830236813F4007F47
:1038C00008D07D4AD2F8883023F44023216E0B4380
:1038D000C2F88830236813F4806F08D0764AD2F893
:1038E000883023F44013616E0B43C2F8883023689C
:1038F00013F0400F08D0704AD2F8883023F44053B8
:10390000216D0B43C2F88830236813F0800F08D074
:10391000694AD2F8883023F44043616D0B43C2F802
:103920008830236813F4807F08D0634AD2F8883047
:1039300023F44033A16D0B43C2F88830236813F49D
:10394000801F08D05C4AD2F89C3023F00303E16D5D
:103950000B43C2F89C30236813F4005F0FD0564A23
:10396000D2F8883023F04063216F0B43C2F88830CF
:10397000236FB3F1006F66D0B3F1806F68D0236816
:1039800013F4002F0FD04C4AD2F8883023F0406354
:10399000616F0B43C2F88830636FB3F1006F5FD083
:1039A000B3F1806F61D0236813F4802F0FD0424AA7
:1039B000D2F8883023F04063A16F0B43C2F88830FF
:1039C000A36FB3F1006F58D0B3F1806F5AD0236862
:1039D00013F4804F0FD0384AD2F8883023F0405388
:1039E000E16F0B43C2F88830E36FB3F1805F51D0D1
:1039F000B3F1005F56D0236813F4004F09D02E4A6C
:103A0000D2F8883023F08043D4F880100B43C2F8FA
:103A10008830236813F4803F09D0274AD2F88830D1
:103A200023F00043D4F884100B43C2F888303046AA
:103A300002B0BDE8F0813E46EDE61F4A936D23F0EB
:103A400080539365EBE6D36843F48013D36096E725
:103A50000121201DFFF79EFC002890D006468EE72E
:103A6000D36843F48013D3609DE70121201DFFF745
:103A700091FC002897D0064695E7D36843F480135D
:103A8000D360A4E70121201DFFF784FC00289ED00D
:103A900006469CE70221201DFFF77CFC0028AAD0E7
:103AA0000646A8E7022104F12000FFF729FD0028BF
:103AB000A1D006469FE700BF00100240094B5B699A
:103AC000002B01DB00207047064B074A9A6002F189
:103AD00088329A605B69002B01DB0020704701206F
:103AE000704700BF0020024023016745034A536925
:103AF00043F0004353610020704700BF00200240A4
:103B0000074B5B6913F0804F07D0054B054ADA601D
:103B100002F14432DA60002070470120704700BF94
:103B2000002002403B2A1908034A536943F08043AE
:103B300053610020704700BF0020024038B50446A2
:103B4000FEF792FF05461E4B1B6913F4803F09D018
:103B5000B4F1FF3FF7D0FEF787FF401BA042F2D33E
:103B6000032029E0164A136923F07F4323F47D03E1
:103B700023F4705323F00503926902F000421343CB
:103B800009D10F4B1B6913F0010F16D00C4B01220A
:103B90001A61002010E00B494A681A434A6013F08A
:103BA000404203D00649886902438A6133F04043AA
:103BB00001D0034A1361012038BD0020FCE700BF9B
:103BC000002002404400002008B5054A536943F034
:103BD000006353614CF25030FFF7B0FF08BD00BFE7
:103BE0000020024040B91548C36ADBB20B60C36ACB
:103BF000C3F3074313607047012804D002280BD099
:103C0000042812D070470D48036BDBB20B60036BC6
:103C1000C3F30743136070470848C36CDBB20B6003
:103C2000C36CC3F30743136070470448036DDBB2F2
:103C30000B60036DC3F307431360E3E7002002400A
:103C4000064B1B6ADBB2AA2B03D0CC2B01D0BB20C6
:103C50007047024B186AC0B2704700BF0020024094
:103C6000024B186A20F0FF00704700BF002002409E
:103C700070B4294B1B6813F4807F1CD1274B1B6841
:103C80004FF6FF74A34224D0254D05EA432505F1E4
:103C900000654FF00064036803F00303012B20D09C
:103CA000022B2BD01F4B9A6A02F000420368134389
:103CB000036070BC7047194B1B684FF6FF74A3423A
:103CC0000BD0174C04EA432404F100644FF0006564
:103CD000E1E7154D4FF00064DDE74FF00065124C51
:103CE000D9E7104E756A114B03EAC50525440D60EE
:103CF000B16A03EAC1031C441460D3E7094E746C33
:103D00000A4B03EAC4042C440C60B16C03EAC103FF
:103D10001D441560C6E700BF00000140E075FF1FAD
:103D200000FE1F000020024000000808F8FF070006
:103D300070B505460C4616464CF25030FFF7FEFEB5
:103D40000346B0B9BDB91C4AD36A03F0FF2344EA65
:103D500006441C43D462184C636943F40033636126
:103D60004CF25030FFF7EAFE0346626922F400325B
:103D70006261184670BD012D0CD0022D13D0042DA8
:103D8000E9D10D4A136D03F0FF2344EA06441C43B6
:103D90001465E0E7084A136B03F0FF2344EA064486
:103DA0001C431463D7E7044AD36C03F0FF2344EAAF
:103DB00006441C43D464CEE70020024038B50546D3
:103DC0004CF25030FFF7BAFE034608B1184638BD32
:103DD000094C206A20F0FF0028432062636943F405
:103DE000003363614CF25030FFF7A8FE034662696E
:103DF00022F400326261E9E70020024038B504464F
:103E00000D464CF25030FFF799FE0346002840F073
:103E10008B8014F0010300F0898005F4E0634FF417
:103E2000E06214F0020F04D005F480510B4342F419
:103E3000805214F0040F04D005F400510B4342F4F7
:103E4000005214F4805F04D005F480410B4342F427
:103E5000804214F0080F04D005F480310B4342F483
:103E6000803214F0100F04D005F400310B4342F4FB
:103E7000003214F0200F04D005F480210B4342F4EB
:103E8000802214F0400F04D005F400210B4342F4CB
:103E9000002214F0800F04D005F480110B4342F48B
:103EA000801214F4807F04D005F400110B4342F417
:103EB000001214F4007F04D005F400010B4342F417
:103EC000000214F4806F04D005F080710B4342F0BF
:103ED000807214F4006F04D005F000710B4342F0BF
:103EE000007214F4005F04D005F080610B4342F0CF
:103EF000806214F4804F04D005F000652B4342F03B
:103F000000620B4C216A21EA0202134323626369B7
:103F100043F4003363614CF25030FFF70FFE034669
:103F2000626922F400326261184638BD1A4678E7A9
:103F30000020024070B505460C4616464CF2503043
:103F4000FFF7FCFD034660BB324B1B6813F4807F18
:103F500029D1314B1B684FF6FF72934231D02F4A63
:103F600002EA432202F100634FF0006205F0030110
:103F700001292ED002293CD0294CA06A20F0004013
:103F800005F000452843A062636943F40033636190
:103F90004CF25030FFF7D2FD0346626922F4003242
:103FA0006261184670BD1C4B1B684FF6FF7293424E
:103FB0000BD01A4A02EA432202F100624FF000637A
:103FC000D4E7184B4FF00062D0E74FF00063154A7A
:103FD000CCE7A41A12494B6A1B0C1B0443EAD40316
:103FE0004B62B21A8B6A1B0C1B0443EAD2028A6230
:103FF000C2E7E41A0A494A6C120C120442EAD404D9
:104000004C64F21A8B6C1B0C1B0443EAD2028A64C8
:10401000B2E700BF00000140E075FF1F00FE1F0077
:10402000002002400000080838B5234B1B78012B04
:104030003FD00446204B01221A7000225A600368C8
:1040400013F0010F15D10025236813F0020F1AD1C8
:10405000236813F0040F1DD1236813F0080F03D059
:10406000216A626A91421DD1134B00221A702846C0
:1040700038BDC26881684068FFF75AFE05460028CF
:10408000E2D00125E0E72069FFF798FE0028DFD0A5
:104090000125DDE7A1696069FFF7B0FE0028DBD0EC
:1040A0000125D9E7E069FFF745FF0028DCD00125AD
:1040B000DAE70225DBE700BF4400002010B5044624
:1040C000062303604068022801D9042807D122464C
:1040D000072342F80C3B04F10801FFF783FDFFF7CB
:1040E000AFFD2061FFF7BCFDA061E369013B012B3F
:1040F00000D910BD236843F00803224642F8243B50
:1041000004F1200104F11C00FFF7B2FDF1E700000B
:10411000F0B482B0002336E0072400E00024B4406D
:104120003C430235644E46F82540644C2568D44330
:1041300004EA05064F6817F4803F01D042EA0506FD
:104140005E4D2E606D6804EA05064F6817F4003F67
:1041500001D042EA0506594D6E60AD6804EA0506D5
:104160004F6817F4801F01D042EA0506534DAE6038
:10417000ED682C404E6816F4001F01D042EA050499
:104180004E4AD46001330A6832FA03F400F0918099
:1041900001249C402240F5D04D68022D01D0122D03
:1041A00010D1DE08083650F826C003F00705AF002E
:1041B0000F25BD402CEA050C0D69BD4045EA0C05F4
:1041C00040F8265006685F000325BD40ED4305EA30
:1041D000060C4E6806F00306BE4046EA0C06066072
:1041E0004E6806F1FF3CBCF1010F03D9112E01D03E
:1041F000122E10D1866805EA060CCE68BE4046EA4B
:104200000C068660466826EA04044E68C6F300166B
:104210009E4026434660C46825408C68BC402C43C1
:10422000C4604C6814F0805FACD0254C256E45F01E
:1042300001052566246E04F001040194019C9D088B
:10424000AE1C1D4C54F8267003F00304A6000F2486
:10425000B44027EA0407B0F1904F3FF45FAF194C28
:10426000A0421AD004F58064A04218D004F58064FE
:10427000A04216D004F58064A04214D004F58064F6
:10428000A04212D004F58064A04210D004F58064EE
:10429000A0423FF441AF082441E701243FE7022454
:1042A0003DE703243BE7042439E7052437E70624E8
:1042B00035E702B0F0BC7047000001400004014047
:1042C00000100240000400480AB181617047816219
:1042D00070474369594041617047704708B5054BC5
:1042E0005B69034200D108BD024B5861FFF7F5FF3F
:1042F000F9E700BF0004014008B590F82530DBB2B3
:10430000022B03D00423C363012008BD0268136895
:1043100023F00E0313600268136823F00103136097
:10432000436C03F01C03016C012202FA03F34B609F
:1043300080F82520002380F82430836B13B1984740
:104340000020E2E70020E0E7024B186800F4C060BC
:10435000704700BF00700040B0F5007F0FD01E4BCB
:104360001B6803F4C063B3F5806F33D01A4A136837
:1043700023F4C06343F48063136000207047164B3E
:104380001B6803F4C063B3F5007F1FD0124A1368A3
:1043900023F4C06343F400731360104B1A68322394
:1043A00003FB02F30E4AA2FB03239B0C01330A4AD0
:1043B000526912F4806F02D00BB1013BF7E7064B54
:1043C0005B6913F4806F03D10020704700207047B1
:1043D00003207047002070470070004068000020F4
:1043E00083DE1B43024A536843F4007353607047F3
:1043F00000700040074AD36823F4E0631B041B0CE1
:10440000000200F4E060184340F0BF6040F4003068
:10441000D060704700ED00E030B4174BDB68C3F3A9
:104420000223C3F10704042C28BF04241D1D062DFC
:1044300001D9033B00E000234FF0FF3505FA04F4F7
:1044400021EA0401994005FA03F322EA0303194320
:10445000002809DB0901C9B200F1604000F56140A4
:1044600080F8001330BC704700F00F000901C9B29A
:10447000024B1954F6E700BF00ED00E014ED00E038
:1044800000F01F02400901239340024A42F8203005
:10449000704700BF00E100E000F1080343604FF007
:1044A000FF328260C3600361002303607047002312
:1044B0000361704743684B609A688A6051609960F5
:1044C0000861036801330360704730B40D68B5F1CB
:1044D000FF3F02D000F1080202E0026904E01A4640
:1044E00053681C68AC42FAD953684B6099608A6083
:1044F0005160086103680133036030BC7047036991
:10450000416882688A60416851605A68824206D078
:10451000002202611A68013A1A60186870478268BE
:104520005A60F5E7436A1BB1036B1B68C3F10703CD
:104530001846704710B5044601F064FFA26BE36BA8
:104540009A4204D0002401F07FFF204610BD0124D0
:10455000F9E710B5044601F055FFA36B23B9012418
:1045600001F072FF204610BD0024F9E770B5044643
:104570001646856B026C5AB903681BB100200135E1
:10458000A56370BD406801F03BF900236360F6E766
:104590006EB9806803F070F8226CA3681344A360BE
:1045A0006268934219D32368A3603046E7E7C06886
:1045B00003F062F8226C5242E3681344E36021681E
:1045C0008B4202D263681A44E260022E01D00020BE
:1045D000D5E725B1013D0020D1E73046CFE70020E7
:1045E000CDE7026C72B110B5C3681344C360446870
:1045F000A34201D30368C3600C46C168204603F0A0
:104600003BF810BD704738B5054601F0FBFE95F844
:10461000454064B203E001F07FF8013C64B2002C35
:1046200008DD6B6A33B105F1240000F0E1FF0028DA
:10463000F3D0F0E7FF2385F8453001F005FF01F0E6
:10464000E1FE95F8444064B203E001F065F8013CF6
:1046500064B2002C08DD2B6933B105F1100000F0C5
:10466000C7FF0028F3D0F0E7FF2385F8443001F0BE
:10467000EBFE38BD38B5E0B104460D4601F0C2FE90
:104680002168E26B236C03FB021060600020A063D2
:10469000A160013A02FB0313E360FF2384F8443076
:1046A00084F84530EDB9236963B901F0CDFE0120EE
:1046B00038BD4FF0100383F31188BFF36F8FBFF342
:1046C0004F8FFEE704F1100000F092FF0028ECD0BD
:1046D000084B4FF080521A60BFF34F8FBFF36F8FBC
:1046E000E3E704F11000FFF7D7FE04F12400FFF721
:1046F000D3FEDAE704ED00E010B5029B0C4639B9B1
:104700001B60D8631C6401211846FFF7B3FF10BD7E
:104710001A60F6E740B94FF0100383F31188BFF336
:104720006F8FBFF34F8FFEE7F0B583B0054699B1A9
:1047300001FB00F017460C46483001F03FFD0646ED
:1047400038B100903B4600F1480221462846FFF769
:10475000D3FF304603B0F0BD0846EBE7F0B585B0B7
:10476000019278B10446B1B1022B20D1E26B012A4B
:104770001DD04FF0100383F31188BFF36F8FBFF389
:104780004F8FFEE74FF0100383F31188BFF36F8F55
:10479000BFF34F8FFEE7026C002AE5D04FF0100305
:1047A00083F31188BFF36F8FBFF34F8FFEE71D4672
:1047B0000E4600F0B7FF074658B9019B002B44D0C6
:1047C0004FF0100383F31188BFF36F8FBFF34F8F48
:1047D000FEE7002739E02A4631462046FFF7C6FEAD
:1047E000636A6BB938B13C4B4FF080521A60BFF32B
:1047F0004F8FBFF36F8F01F027FE012005B0F0BD92
:1048000004F1240000F0F4FE0028F4D0324B4FF005
:1048100080521A60BFF34F8FBFF36F8FEBE701F049
:1048200013FE0020EAE702A800F028FF012719E0A4
:10483000002384F8443021E0002384F8453023E04D
:104840002046FFF7E0FE00F0AFFD01F0DBFDA26BBC
:10485000E36B9A42BFD3022DBDD0019B002BDED06B
:10486000002FE0D001F0F0FD00F004FD01F0CAFDE2
:1048700094F844305BB2B3F1FF3FD9D094F845309F
:104880005BB2B3F1FF3FD7D001F0DEFD01A902A872
:1048900000F000FFC8B92046FFF74CFE0028CFD03B
:1048A000019904F1100000F06FFE2046FFF7ABFE07
:1048B00000F07AFD0028C8D1074B4FF080521A60F3
:1048C000BFF34F8FBFF36F8FBFE72046FFF79BFE0D
:1048D00000F06AFD002091E704ED00E048B108B562
:1048E000002141600160C1600B460A46FFF736FFB8
:1048F00008BD704710B5024600210120FFF70AFFEE
:104900000446FFF7EBFF204610BD2DE9F84378B1D0
:104910000446B1B1022B20D1E06B01281DD04FF02D
:10492000100383F31188BFF36F8FBFF34F8FFEE740
:104930004FF0100383F31188BFF36F8FBFF34F8FD6
:10494000FEE7006C0028E5D04FF0100383F31188D8
:10495000BFF36F8FBFF34F8FFEE71F469046894628
:1049600001F07AFEEFF311864FF0100383F3118804
:10497000BFF36F8FBFF34F8FA26BE36B9A4206D3E7
:10498000022F04D0002086F31188BDE8F88394F844
:1049900045506DB23A4649462046FFF7E7FDB5F16E
:1049A000FF3F05D06B1C5BB284F845300120EAE77D
:1049B000636A0BB90120E6E704F1240000F018FE59
:1049C00030B1B8F1000F05D00120C8F80000DAE7D7
:1049D0000120D8E70120D6E760B170B50446036C2A
:1049E0008BB14FF0100383F31188BFF36F8FBFF3C8
:1049F0004F8FFEE74FF0100383F31188BFF36F8FE3
:104A0000BFF34F8FFEE70368F3B10E4601F024FEBB
:104A1000EFF311854FF0100383F31188BFF36F8F0D
:104A2000BFF34F8FA26BE36B934226D994F84530C6
:104A30005BB20132A263B3F1FF3F11D001335BB22D
:104A400084F84530012019E04368002BDDD04FF099
:104A5000100383F31188BFF36F8FBFF34F8FFEE70F
:104A6000636A0BB9012009E004F1240000F0C0FDE5
:104A700038B146B10120306000E0002085F3118894
:104A800070BD0120FAE70120F8E70000F0B585B01D
:104A9000019290B10446C9B10E4600F043FE0746AC
:104AA00000BB019B002B5CD04FF0100383F31188F7
:104AB000BFF36F8FBFF34F8FFEE74FF0100383F309
:104AC0001188BFF36F8FBFF34F8FFEE7036C002B8E
:104AD000E2D04FF0100383F31188BFF36F8FBFF361
:104AE0004F8FFEE700273CE031462046FFF779FD77
:104AF000013DA563236923B901F0A6FC012005B09F
:104B0000F0BD04F1100000F073FD0028F4D0354B27
:104B10004FF080521A60BFF34F8FBFF36F8FEBE7F8
:104B200001F092FC0020EAE702A800F0A7FD0127AF
:104B300021E0002384F8443029E0002384F8453044
:104B40002BE02046FFF75FFD00F02EFC09E0204639
:104B5000FFF759FD00F028FC2046FFF7FAFC00287B
:104B60003DD101F04FFCA56B002DBDD1019B002B69
:104B7000D6D0002FD8D001F067FC00F07BFB01F00D
:104B800041FC94F844305BB2B3F1FF3FD1D094F8CC
:104B900045305BB2B3F1FF3FCFD001F055FC01A926
:104BA00002A800F077FD0028D1D12046FFF7D1FC04
:104BB0000028C6D0019904F1240000F0E5FC20464D
:104BC000FFF721FD00F0F0FB0028CAD1054B4FF0A4
:104BD00080521A60BFF34F8FBFF36F8FC1E7002081
:104BE0008DE700BF04ED00E070B584B0019158B1CD
:104BF0000446036C8BB14FF0100383F31188BFF3AD
:104C00006F8FBFF34F8FFEE74FF0100383F31188D0
:104C1000BFF36F8FBFF34F8FFEE700F083FD0646B3
:104C200050B9019B5BB14FF0100383F31188BFF3C0
:104C30006F8FBFF34F8FFEE700252E4653E00546EA
:104C400051E0013BA36323683BB123694BB901F0F9
:104C5000FBFB0125284604B070BD00F08BFE6060B0
:104C6000F3E704F1100000F0C3FC0028EFD0464B3E
:104C70004FF080521A60BFF34F8FBFF36F8FE6E79C
:104C800045B14FF0100383F31188BFF36F8FBFF36B
:104C90004F8FFEE701F0D8FBDCE702A800F0EEFC46
:104CA00001262AE0002384F8443032E0002384F80F
:104CB000453034E001F0A6FB606800F043FD054696
:104CC00001F0C2FB3BE02046FFF79DFC00F06CFBCF
:104CD00009E02046FFF797FC00F066FB2046FFF74F
:104CE00038FC002840D101F08DFBA36B002BA8D12C
:104CF000019B002BC4D0002ECFD001F0A5FB00F00B
:104D0000B9FA01F07FFB94F844305BB2B3F1FF3F96
:104D1000C8D094F845305BB2B3F1FF3FC6D001F084
:104D200093FB01A902A800F0B5FC0028D1D12046D0
:104D3000FFF70FFC0028C6D02368002BBAD00199DA
:104D400004F1240000F020FC2046FFF75CFC00F09A
:104D50002BFB0028C7D10C4B4FF080521A60BFF3D9
:104D60004F8FBFF36F8FBEE70DB9002572E701F0DB
:104D700049FB2046FFF7D6FB0146606800F09AFD2C
:104D800001F062FBF1E700BF04ED00E02DE9F8431C
:104D9000C8B1044601B31746894601F05DFCEFF344
:104DA00011864FF0100383F31188BFF36F8FBFF3A9
:104DB0004F8FD4F83880B8F1000F19D1002086F356
:104DC0001188BDE8F8834FF0100383F31188BFF317
:104DD0006F8FBFF34F8FFEE7036C002BDBD04FF0DC
:104DE000100383F31188BFF36F8FBFF34F8FFEE77C
:104DF00094F844506DB249462046FFF7F2FB08F1A3
:104E0000FF33A363B5F1FF3F05D06B1C5BB284F8A1
:104E100044300120D3E723690BB90120CFE704F127
:104E2000100000F0E5FB18B127B101203860C6E79B
:104E30000120C4E70120C2E70023072B0CD8074A52
:104E400052F833200AB10133F7E7044A42F833102D
:104E500002EBC30358607047704700BF904C0220BC
:104E600070B504460D46164601F0CCFA94F844306D
:104E70005BB2B3F1FF3F0DD094F845305BB2B3F1B4
:104E8000FF3F0BD001F0E0FAA36B5BB12046FFF7C8
:104E9000BAFB70BD002384F84430EDE7002384F8AA
:104EA0004530EFE73246294604F1240000F084FB48
:104EB000ECE70000084B1B681B6823B9074B4FF059
:104EC000FF321A607047044B1B68DB68DB685A6866
:104ED000024B1A60704700BF3C04002014050020FC
:104EE00010B50446006B01F0EDF9204601F0EAF937
:104EF00010BD2DE9F04780469946089D099F0A9C00
:104F0000266B02F18042013A06EB820626F0070684
:104F100000230F2B06D8CA5CE01880F834200AB1B1
:104F20000133F6E7002384F84330062D00D9062527
:104F3000E56265644FF0000AC4F848A0201DFFF741
:104F4000B6FA04F11800FFF7B2FA2461C5F10705BB
:104F5000A5616462C4F84CA084F850A04A4641465A
:104F6000304601F025FA206007B13C60BDE8F087CB
:104F700038B50024062C08D804EB840293000E48B0
:104F80001844FFF789FA0134F4E70C4D2846FFF77F
:104F900083FA0B4C2046FFF77FFA0A48FFF77CFAAA
:104FA0000948FFF779FA0948FFF776FA084B1D60C0
:104FB000084B1C6038BD00BF44040020E8040020FA
:104FC000FC0400201C0500204805002034050020BA
:104FD0003C0400204004002010B5044601F012FA01
:104FE000204A1368013313601F4B1B685BB11F4BD2
:104FF0001B686BB91C4B1B68DA6AE36A9A4207D8D4
:10500000194B1C6004E0184B1C601368012B26D060
:10501000174A136801331360E36A01229A40154965
:10502000086802430A6003EB83039A00211D1248BB
:105030001044FFF73FFA01F007FA0C4B1B686BB105
:10504000094B1B68DA6AE36A9A4207D20B4B4FF0AE
:1050500080521A60BFF34F8FBFF36F8F10BDFFF701
:1050600087FFD5E7D0040020380400203005002059
:10507000E0040020E40400204404002004ED00E0EB
:105080000F4B1B68D3B110B501F0BCF90D4BDB68B9
:10509000DC68201DFFF733FA0B4A1368013B1360ED
:1050A000074A1368013B136001F0CEF92046FFF771
:1050B00017FF034B1B68002BE6D110BD704700BFE4
:1050C000D404002048050020D004002008B5FFF7D4
:1050D000D7FF064B1B68012BF9D9054B4FF08052C7
:1050E0001A60BFF34F8FBFF36F8FF0E744040020C7
:1050F00004ED00E070B504460E461D4B1D681D4BC7
:1051000018680430FFF7FBF950B91A4B1B68DA6ACC
:10511000012303FA02F218490B6823EA02030B6029
:10512000B4F1FF3F0DD02C44124B1B685C60A542CC
:1051300010D9124B18680F4B19680431FFF7C5F9E5
:1051400070BD002EEFD00B4B196804310C48FFF7EF
:10515000B1F9F5E70B4B1868064B19680431FFF7F6
:10516000B4F9094B1B68A342EAD9074B1C60E7E777
:105170005C05002038040020E404002040040020E6
:10518000340500203C040020140500202DE9F043E4
:1051900085B00746884614469946900001F00EF8FF
:1051A000E8B10646542001F009F8054698B10663B7
:1051B000D5B10023039302950D9B01930C9B0093A3
:1051C0004B46224641463846FFF793FE2846FFF7F6
:1051D00003FF012005E0304601F074F8E8E74FF0E6
:1051E000FF3005B0BDE8F0834FF0FF30F9E7000075
:1051F00000B583B0194B0193002300938022184916
:105200001848FFF7C3FF012807D0012808D0B0F1E4
:10521000FF3F1AD003B05DF804FB00F0DFFCF4E7B9
:105220004FF0100383F31188BFF36F8FBFF34F8FDD
:105230000D4B4FF0FF321A600C4B01221A600C4BE1
:1052400000221A6001F080F9E4E74FF0100383F3C5
:105250001188BFF36F8FBFF34F8FFEE7100500205B
:10526000DC940008CD500008140500203005002013
:105270005C050020024A136801331360704700BFC9
:10528000DC040020014B1868704700BF5C0500205B
:10529000F8B53A4B1B68002B64D1394B1D680135BA
:1052A0001D60C5B9374B1B681B6843B14FF0100335
:1052B00083F31188BFF36F8FBFF34F8FFEE7314A3F
:1052C0001168314B186810601960304A1368013357
:1052D0001360FFF7EFFD2E4B1B68AB4238D900245B
:1052E0002C4B1B68DB6A03EB83039A002A4B9B5809
:1052F000012B3CD901243AE00124224B1B681B6896
:1053000043B3204B1B68DB68DE6873689D4226D37D
:10531000371D3846FFF7F3F8B36A1BB106F11800E2
:10532000FFF7EDF8F36A01229A401C49086802432E
:105330000A6003EB83039A00394617481044FFF7CD
:10534000B9F8F26A134B1B68DB6A9A42D4D2D4E7ED
:105350000024D2E70E4B4FF0FF321A60C0E70C4A30
:105360001360BDE70E4A13680133136000240D4B30
:105370001B6803B101242046F8BD00BFDC040020F7
:105380005C0500203C04002040040020180500209B
:10539000140500203804002044040020E404002008
:1053A000D80400206005002038B5344B1B6843B991
:1053B0004FF0100383F31188BFF36F8FBFF34F8F4C
:1053C000FEE701F01FF82D4B1A68013A1A601B68BE
:1053D000002B4DD12A4B1B680BB9002449E0002457
:1053E000284B1B681BB3274BDB68DC6804F11800F3
:1053F000FFF785F8251D2846FFF781F8E36A0122AB
:105400009A402149086802430A6003EB83039A002B
:1054100029461E481044FFF74DF8E26A1C4B1B68F2
:10542000DB6A9A42DCD31B4B01221A60D8E70CB12D
:10543000FFF740FD184B1C6874B9164B1C68C4B1CB
:10544000164B4FF080521A60BFF34F8FBFF36F8F30
:1054500001240EE0013C07D0FFF71AFF0028F9D025
:105460000C4B01221A60F5E70B4B00221A60E4E7AF
:10547000002400F0E9FF204638BD00BFDC04002016
:10548000D00400201C050020E40400204404002077
:105490003804002060050020D804002004ED00E05E
:1054A00010B5A8B104460F4B1B6843B14FF0100371
:1054B00083F31188BFF36F8FBFF34F8FFEE7FFF7C2
:1054C000D9FE00212046FFF715FEFFF76DFF38B922
:1054D000054B4FF080521A60BFF34F8FBFF36F8FB1
:1054E00010BD00BFDC04002004ED00E0214B1B6870
:1054F0001BB1214B01221A6070471F4B00221A601A
:105500001E4B1B68B3FA83F3DBB2C3F11F0303EB3B
:1055100083018A001A498A5842B94FF0100383F375
:105520001188BFF36F8FBFF34F8FFEE710B414489D
:105530009A00D418A10001444C6864684C601A4475
:1055400091000831084484420BD003EB83039A0096
:105550000B4B13445B68DA680A4B1A605DF8044B26
:105560007047606803EB83029100054A0A4450606B
:10557000EBE700BFDC04002060050020E40400200D
:10558000440400203804002058B110B50C46094BE3
:1055900019681831FEF799FF01212046FFF7AAFD8F
:1055A00010BD4FF0100383F31188BFF36F8FBFF36B
:1055B0004F8FFEE73804002038B570B10C46154611
:1055C0000A4A11681831FEF775FF0DB14FF0FF342C
:1055D00029462046FFF78EFD38BD4FF0100383F3B8
:1055E0001188BFF36F8FBFF34F8FFEE738040020A1
:1055F00038B5C368DC6824B304F118052846FEF703
:105600007EFF184B1B682BBB251D2846FEF777FF36
:10561000E36A01229A401449086802430A6003EBD6
:1056200083039A00294611481044FEF743FFE26ABB
:105630000F4B1B68DB6A9A4211D901200D4B186091
:105640000EE04FF0100383F31188BFF36F8FBFF3A9
:105650004F8FFEE729460848FEF72CFFE7E70020BA
:1056600038BD00BFDC040020E40400204404002016
:1056700038040020600500201C050020034B1B6837
:105680000360034B1B684360704700BF1805002090
:105690005C050020F8B5C8B1054601B30C4600F022
:1056A000B1FE1B4B19686B68C81A2268B2F1FF3F44
:1056B00026D02F68174E3668B74201D08B4224D9C6
:1056C000824215D80023236001241AE04FF0100312
:1056D00083F31188BFF36F8FBFF34F8FFEE74FF057
:1056E000100383F31188BFF36F8FBFF34F8FFEE773
:1056F0005B1A134423602846FFF7C0FF002400E034
:10570000002400F0A1FE2046F8BD0124F9E700BF07
:105710005C05002018050020014B01221A6070472B
:1057200060050020054B1B6833B1054B1B680BB1AE
:10573000002070470220704701207047300500208C
:10574000DC040020002850D038B50446C26A29493C
:105750000968C96A8A4240D28169002905DB254966
:105760000968C96AC1F107018161606902EB8202BF
:105770009100214A0A44904205D01E4A1268D26A1A
:10578000E262012038BD251D2846FEF7B8FEA0B113
:10579000184B1B68DB6AE362012404FA03F2174921
:1057A000086802430A6003EB83039A002946124803
:1057B0001044FEF77FFE2046E4E7E36A03EB830133
:1057C0008A000D498A58002AE2D101229A400B49E9
:1057D0000B6823EA02030B60DAE7426C054B1B6897
:1057E000DB6A9A4203D30020CCE7002070470120F7
:1057F000C8E700BF3804002044040020E40400206F
:1058000000284CD038B50446274A1268824208D096
:105810004FF0100383F31188BFF36F8FBFF34F8FE7
:10582000FEE7826C42B94FF0100383F31188BFF397
:105830006F8FBFF34F8FFEE7013A8264C06A616CDD
:1058400088422ED00AB1002038BD251D2846FEF71B
:1058500056FE70B9E26A02EB82018B001349CB5805
:105860003BB9012303FA02F211490B6823EA020350
:105870000B60636CE362C3F10702A261012404FAC6
:1058800003F20B49086802430A6003EB83039A00A2
:10589000294606481044FEF70DFE2046D4E70020B6
:1058A00070470020D0E700BF3804002044040020E7
:1058B000E4040020002856D038B50446806C40B976
:1058C0004FF0100383F31188BFF36F8FBFF34F8F37
:1058D000FEE7626C8A4200D20A46E16A914201D038
:1058E000012800D038BD20480068A04232D0E262D2
:1058F000A069002802DBC2F10702A261636901EB23
:1059000081018800194A02449342EBD1251D2846A3
:10591000FEF7F5FD70B9E26A02EB82018B001349D4
:10592000CB583BB9012303FA02F211490B6823EA71
:1059300002030B60E36A01229A400D4908680243A2
:105940000A6003EB83039A00294608481044FEF7D7
:10595000B1FDC7E74FF0100383F31188BFF36F8FDA
:10596000BFF34F8FFEE77047380400204404002047
:10597000E4040020054B1B6823B1044B1A68936CA8
:1059800001339364014B1868704700BF380400204E
:1059900038B505460C4600F035FD194B1B68DB6C2D
:1059A0002BB9174B1B68012283F85020ACB900F0CB
:1059B0004BFD00F027FD124B1B68DC6C24B1CDB110
:1059C0000F4B1B680022DA640D4B1B68002283F822
:1059D000502000F039FD204638BD11462046FFF723
:1059E00089FB084B4FF080521A60BFF34F8FBFF313
:1059F0006F8FDCE7024B1B68621EDA64E4E700BFCE
:105A00003804002004ED00E0F8B5D8B104460D4696
:105A100000F022FEEFF311874FF0100383F311889B
:105A2000BFF36F8FBFF34F8F94F85030DBB2022279
:105A300084F85020E26C0132E264012B0BD087F332
:105A40001188F8BD4FF0100383F31188BFF36F8FF7
:105A5000BFF34F8FFEE7A36A43B14FF0100383F308
:105A60001188BFF36F8FBFF34F8FFEE7144B1B6896
:105A7000E3B9261D3046FEF742FDE36A01229A4053
:105A80001049086802430A6003EB83039A00314619
:105A90000D481044FEF70EFDE26A0C4B1B68DB6AF2
:105AA0009A42CCD945B101232B60C8E704F1180113
:105AB0000748FEF7FFFCEFE7064B01221A60BEE73E
:105AC000DC040020E404002044040020380400200A
:105AD0001C05002060050020064B1A681368B3FA05
